20230110-09:28:46.000000000 : 8=FIX.4.2|9=117|35=A|34=1|49=SacombankFDC|52=20230110-09:28:46.000|56=CQG_Gateway|50=TestFIXSessionPersist|96=pass|98=0|108=60|141=Y|10=023|
20230110-09:28:46.000000000 : 8=FIX.4.2|9=167|35=5|49=CQG_Gateway|56=SacombankFDC|34=1|57=TestFIXSessionPersist|52=20230110-09:28:46.112|20173=20230110-09:28:46.112111|58=Your logon is disabled. Contact your FCM.|10=127|
20230110-09:28:46.000000000 : 8=FIX.4.2|9=66|35=5|34=2|49=SacombankFDC|52=20230110-09:28:46.000|56=CQG_Gateway|10=058|
20230110-09:29:46.000000000 : 8=FIX.4.2|9=117|35=A|34=1|49=SacombankFDC|52=20230110-09:29:46.000|56=CQG_Gateway|50=TestFIXSessionPersist|96=pass|98=0|108=60|141=Y|10=024|
20230110-09:29:46.000000000 : 8=FIX.4.2|9=167|35=5|49=CQG_Gateway|56=SacombankFDC|34=1|57=TestFIXSessionPersist|52=20230110-09:29:46.662|20173=20230110-09:29:46.662026|58=Your logon is disabled. Contact your FCM.|10=154|
20230110-09:29:46.000000000 : 8=FIX.4.2|9=66|35=5|34=2|49=SacombankFDC|52=20230110-09:29:46.000|56=CQG_Gateway|10=059|
20230110-09:30:47.000000000 : 8=FIX.4.2|9=117|35=A|34=1|49=SacombankFDC|52=20230110-09:30:47.000|56=CQG_Gateway|50=TestFIXSessionPersist|96=pass|98=0|108=60|141=Y|10=017|
20230110-09:30:47.000000000 : 8=FIX.4.2|9=167|35=5|49=CQG_Gateway|56=SacombankFDC|34=1|57=TestFIXSessionPersist|52=20230110-09:30:47.324|20173=20230110-09:30:47.324593|58=Your logon is disabled. Contact your FCM.|10=139|
20230110-09:30:47.000000000 : 8=FIX.4.2|9=66|35=5|34=2|49=SacombankFDC|52=20230110-09:30:47.000|56=CQG_Gateway|10=052|
20230111-01:27:00.000000000 : 8=FIX.4.2|9=117|35=A|34=1|49=SacombankFDC|52=20230111-01:27:00.000|56=CQG_Gateway|50=TestFIXSessionPersist|96=pass|98=0|108=60|141=Y|10=005|
20230111-01:27:00.000000000 : 8=FIX.4.2|9=167|35=5|49=CQG_Gateway|56=SacombankFDC|34=1|57=TestFIXSessionPersist|52=20230111-01:27:00.507|20173=20230111-01:27:00.507761|58=Your logon is disabled. Contact your FCM.|10=118|
20230111-01:27:00.000000000 : 8=FIX.4.2|9=66|35=5|34=2|49=SacombankFDC|52=20230111-01:27:00.000|56=CQG_Gateway|10=040|
20230111-01:28:01.000000000 : 8=FIX.4.2|9=117|35=A|34=1|49=SacombankFDC|52=20230111-01:28:01.000|56=CQG_Gateway|50=TestFIXSessionPersist|96=pass|98=0|108=60|141=Y|10=007|
20230111-01:28:01.000000000 : 8=FIX.4.2|9=167|35=5|49=CQG_Gateway|56=SacombankFDC|34=1|57=TestFIXSessionPersist|52=20230111-01:28:01.425|20173=20230111-01:28:01.425506|58=Your logon is disabled. Contact your FCM.|10=117|
20230111-01:28:01.000000000 : 8=FIX.4.2|9=66|35=5|34=2|49=SacombankFDC|52=20230111-01:28:01.000|56=CQG_Gateway|10=042|
20230111-01:29:00.000000000 : 8=FIX.4.2|9=117|35=A|34=1|49=SacombankFDC|52=20230111-01:29:00.000|56=CQG_Gateway|50=TestFIXSessionPersist|96=pass|98=0|108=60|141=Y|10=007|
20230111-01:29:00.000000000 : 8=FIX.4.2|9=167|35=5|49=CQG_Gateway|56=SacombankFDC|34=1|57=TestFIXSessionPersist|52=20230111-01:29:00.959|20173=20230111-01:29:00.959236|58=Your logon is disabled. Contact your FCM.|10=141|
20230111-01:29:00.000000000 : 8=FIX.4.2|9=66|35=5|34=2|49=SacombankFDC|52=20230111-01:29:00.000|56=CQG_Gateway|10=042|
20230111-01:30:01.000000000 : 8=FIX.4.2|9=117|35=A|34=1|49=SacombankFDC|52=20230111-01:30:01.000|56=CQG_Gateway|50=TestFIXSessionPersist|96=pass|98=0|108=60|141=Y|10=000|
20230111-01:30:01.000000000 : 8=FIX.4.2|9=167|35=5|49=CQG_Gateway|56=SacombankFDC|34=1|57=TestFIXSessionPersist|52=20230111-01:30:01.521|20173=20230111-01:30:01.521198|58=Your logon is disabled. Contact your FCM.|10=104|
20230111-01:30:01.000000000 : 8=FIX.4.2|9=66|35=5|34=2|49=SacombankFDC|52=20230111-01:30:01.000|56=CQG_Gateway|10=035|
20230111-01:31:00.000000000 : 8=FIX.4.2|9=117|35=A|34=1|49=SacombankFDC|52=20230111-01:31:00.000|56=CQG_Gateway|50=TestFIXSessionPersist|96=pass|98=0|108=60|141=Y|10=000|
20230111-01:31:00.000000000 : 8=FIX.4.2|9=167|35=5|49=CQG_Gateway|56=SacombankFDC|34=1|57=TestFIXSessionPersist|52=20230111-01:31:01.070|20173=20230111-01:31:01.070823|58=Your logon is disabled. Contact your FCM.|10=099|
20230111-01:31:00.000000000 : 8=FIX.4.2|9=66|35=5|34=2|49=SacombankFDC|52=20230111-01:31:00.000|56=CQG_Gateway|10=035|
20230111-01:32:01.000000000 : 8=FIX.4.2|9=117|35=A|34=1|49=SacombankFDC|52=20230111-01:32:01.000|56=CQG_Gateway|50=TestFIXSessionPersist|96=pass|98=0|108=60|141=Y|10=002|
20230111-01:32:01.000000000 : 8=FIX.4.2|9=167|35=5|49=CQG_Gateway|56=SacombankFDC|34=1|57=TestFIXSessionPersist|52=20230111-01:32:01.986|20173=20230111-01:32:01.986905|58=Your logon is disabled. Contact your FCM.|10=134|
20230111-01:32:01.000000000 : 8=FIX.4.2|9=66|35=5|34=2|49=SacombankFDC|52=20230111-01:32:01.000|56=CQG_Gateway|10=037|
20230111-01:33:01.000000000 : 8=FIX.4.2|9=117|35=A|34=1|49=SacombankFDC|52=20230111-01:33:01.000|56=CQG_Gateway|50=TestFIXSessionPersist|96=pass|98=0|108=60|141=Y|10=003|
20230111-01:33:01.000000000 : 8=FIX.4.2|9=167|35=5|49=CQG_Gateway|56=SacombankFDC|34=1|57=TestFIXSessionPersist|52=20230111-01:33:01.581|20173=20230111-01:33:01.581185|58=Your logon is disabled. Contact your FCM.|10=118|
20230111-01:33:01.000000000 : 8=FIX.4.2|9=66|35=5|34=2|49=SacombankFDC|52=20230111-01:33:01.000|56=CQG_Gateway|10=038|
20230111-01:34:00.000000000 : 8=FIX.4.2|9=117|35=A|34=1|49=SacombankFDC|52=20230111-01:34:00.000|56=CQG_Gateway|50=TestFIXSessionPersist|96=pass|98=0|108=60|141=Y|10=003|
20230111-01:34:01.000000000 : 8=FIX.4.2|9=167|35=5|49=CQG_Gateway|56=SacombankFDC|34=1|57=TestFIXSessionPersist|52=20230111-01:34:01.230|20173=20230111-01:34:01.230792|58=Your logon is disabled. Contact your FCM.|10=106|
20230111-01:34:01.000000000 : 8=FIX.4.2|9=66|35=5|34=2|49=SacombankFDC|52=20230111-01:34:01.000|56=CQG_Gateway|10=039|
20230111-01:35:00.000000000 : 8=FIX.4.2|9=117|35=A|34=1|49=SacombankFDC|52=20230111-01:35:00.000|56=CQG_Gateway|50=TestFIXSessionPersist|96=pass|98=0|108=60|141=Y|10=004|
20230111-01:35:00.000000000 : 8=FIX.4.2|9=167|35=5|49=CQG_Gateway|56=SacombankFDC|34=1|57=TestFIXSessionPersist|52=20230111-01:35:00.763|20173=20230111-01:35:00.763995|58=Your logon is disabled. Contact your FCM.|10=133|
20230111-01:35:00.000000000 : 8=FIX.4.2|9=66|35=5|34=2|49=SacombankFDC|52=20230111-01:35:00.000|56=CQG_Gateway|10=039|
20230111-01:36:00.000000000 : 8=FIX.4.2|9=117|35=A|34=1|49=SacombankFDC|52=20230111-01:36:00.000|56=CQG_Gateway|50=TestFIXSessionPersist|96=pass|98=0|108=60|141=Y|10=005|
20230111-01:36:01.000000000 : 8=FIX.4.2|9=167|35=5|49=CQG_Gateway|56=SacombankFDC|34=1|57=TestFIXSessionPersist|52=20230111-01:36:01.330|20173=20230111-01:36:01.330089|58=Your logon is disabled. Contact your FCM.|10=111|
20230111-01:36:01.000000000 : 8=FIX.4.2|9=66|35=5|34=2|49=SacombankFDC|52=20230111-01:36:01.000|56=CQG_Gateway|10=041|
20230111-01:37:00.000000000 : 8=FIX.4.2|9=117|35=A|34=1|49=SacombankFDC|52=20230111-01:37:00.000|56=CQG_Gateway|50=TestFIXSessionPersist|96=pass|98=0|108=60|141=Y|10=006|
20230111-01:37:00.000000000 : 8=FIX.4.2|9=167|35=5|49=CQG_Gateway|56=SacombankFDC|34=1|57=TestFIXSessionPersist|52=20230111-01:37:00.818|20173=20230111-01:37:00.818856|58=Your logon is disabled. Contact your FCM.|10=135|
20230111-01:37:00.000000000 : 8=FIX.4.2|9=66|35=5|34=2|49=SacombankFDC|52=20230111-01:37:00.000|56=CQG_Gateway|10=041|
20230111-01:38:01.000000000 : 8=FIX.4.2|9=117|35=A|34=1|49=SacombankFDC|52=20230111-01:38:01.000|56=CQG_Gateway|50=TestFIXSessionPersist|96=pass|98=0|108=60|141=Y|10=008|
20230111-01:38:02.000000000 : 8=FIX.4.2|9=167|35=5|49=CQG_Gateway|56=SacombankFDC|34=1|57=TestFIXSessionPersist|52=20230111-01:38:01.754|20173=20230111-01:38:01.754694|58=Your logon is disabled. Contact your FCM.|10=137|
20230111-01:38:02.000000000 : 8=FIX.4.2|9=66|35=5|34=2|49=SacombankFDC|52=20230111-01:38:02.000|56=CQG_Gateway|10=044|
20230111-01:39:00.000000000 : 8=FIX.4.2|9=117|35=A|34=1|49=SacombankFDC|52=20230111-01:39:00.000|56=CQG_Gateway|50=TestFIXSessionPersist|96=pass|98=0|108=60|141=Y|10=008|
20230111-01:39:01.000000000 : 8=FIX.4.2|9=167|35=5|49=CQG_Gateway|56=SacombankFDC|34=1|57=TestFIXSessionPersist|52=20230111-01:39:01.430|20173=20230111-01:39:01.430778|58=Your logon is disabled. Contact your FCM.|10=124|
20230111-01:39:01.000000000 : 8=FIX.4.2|9=66|35=5|34=2|49=SacombankFDC|52=20230111-01:39:01.000|56=CQG_Gateway|10=044|
20230111-01:40:00.000000000 : 8=FIX.4.2|9=117|35=A|34=1|49=SacombankFDC|52=20230111-01:40:00.000|56=CQG_Gateway|50=TestFIXSessionPersist|96=pass|98=0|108=60|141=Y|10=000|
20230111-01:40:01.000000000 : 8=FIX.4.2|9=167|35=5|49=CQG_Gateway|56=SacombankFDC|34=1|57=TestFIXSessionPersist|52=20230111-01:40:00.851|20173=20230111-01:40:00.851691|58=Your logon is disabled. Contact your FCM.|10=114|
20230111-01:40:01.000000000 : 8=FIX.4.2|9=66|35=5|34=2|49=SacombankFDC|52=20230111-01:40:01.000|56=CQG_Gateway|10=036|
20230111-01:41:01.000000000 : 8=FIX.4.2|9=117|35=A|34=1|49=SacombankFDC|52=20230111-01:41:01.000|56=CQG_Gateway|50=TestFIXSessionPersist|96=pass|98=0|108=60|141=Y|10=002|
20230111-01:41:01.000000000 : 8=FIX.4.2|9=167|35=5|49=CQG_Gateway|56=SacombankFDC|34=1|57=TestFIXSessionPersist|52=20230111-01:41:01.412|20173=20230111-01:41:01.412255|58=Your logon is disabled. Contact your FCM.|10=100|
20230111-01:41:01.000000000 : 8=FIX.4.2|9=66|35=5|34=2|49=SacombankFDC|52=20230111-01:41:01.000|56=CQG_Gateway|10=037|
20230111-01:42:00.000000000 : 8=FIX.4.2|9=117|35=A|34=1|49=SacombankFDC|52=20230111-01:42:00.000|56=CQG_Gateway|50=TestFIXSessionPersist|96=pass|98=0|108=60|141=Y|10=002|
20230111-01:42:00.000000000 : 8=FIX.4.2|9=167|35=5|49=CQG_Gateway|56=SacombankFDC|34=1|57=TestFIXSessionPersist|52=20230111-01:42:01.066|20173=20230111-01:42:01.066136|58=Your logon is disabled. Contact your FCM.|10=110|
20230111-01:42:00.000000000 : 8=FIX.4.2|9=66|35=5|34=2|49=SacombankFDC|52=20230111-01:42:00.000|56=CQG_Gateway|10=037|
20230111-01:43:01.000000000 : 8=FIX.4.2|9=117|35=A|34=1|49=SacombankFDC|52=20230111-01:43:01.000|56=CQG_Gateway|50=TestFIXSessionPersist|96=pass|98=0|108=60|141=Y|10=004|
20230111-01:43:01.000000000 : 8=FIX.4.2|9=167|35=5|49=CQG_Gateway|56=SacombankFDC|34=1|57=TestFIXSessionPersist|52=20230111-01:43:01.600|20173=20230111-01:43:01.600314|58=Your logon is disabled. Contact your FCM.|10=098|
20230111-01:43:01.000000000 : 8=FIX.4.2|9=66|35=5|34=2|49=SacombankFDC|52=20230111-01:43:01.000|56=CQG_Gateway|10=039|
20230111-01:44:00.000000000 : 8=FIX.4.2|9=117|35=A|34=1|49=SacombankFDC|52=20230111-01:44:00.000|56=CQG_Gateway|50=TestFIXSessionPersist|96=pass|98=0|108=60|141=Y|10=004|
20230111-01:44:01.000000000 : 8=FIX.4.2|9=167|35=5|49=CQG_Gateway|56=SacombankFDC|34=1|57=TestFIXSessionPersist|52=20230111-01:44:01.286|20173=20230111-01:44:01.286894|58=Your logon is disabled. Contact your FCM.|10=133|
20230111-01:44:01.000000000 : 8=FIX.4.2|9=66|35=5|34=2|49=SacombankFDC|52=20230111-01:44:01.000|56=CQG_Gateway|10=040|
20230111-01:45:00.000000000 : 8=FIX.4.2|9=117|35=A|34=1|49=SacombankFDC|52=20230111-01:45:00.000|56=CQG_Gateway|50=TestFIXSessionPersist|96=pass|98=0|108=60|141=Y|10=005|
20230111-01:45:00.000000000 : 8=FIX.4.2|9=167|35=5|49=CQG_Gateway|56=SacombankFDC|34=1|57=TestFIXSessionPersist|52=20230111-01:45:00.881|20173=20230111-01:45:00.881459|58=Your logon is disabled. Contact your FCM.|10=132|
20230111-01:45:00.000000000 : 8=FIX.4.2|9=66|35=5|34=2|49=SacombankFDC|52=20230111-01:45:00.000|56=CQG_Gateway|10=040|
20230111-01:46:01.000000000 : 8=FIX.4.2|9=117|35=A|34=1|49=SacombankFDC|52=20230111-01:46:01.000|56=CQG_Gateway|50=TestFIXSessionPersist|96=pass|98=0|108=60|141=Y|10=007|
20230111-01:46:01.000000000 : 8=FIX.4.2|9=167|35=5|49=CQG_Gateway|56=SacombankFDC|34=1|57=TestFIXSessionPersist|52=20230111-01:46:01.504|20173=20230111-01:46:01.504766|58=Your logon is disabled. Contact your FCM.|10=121|
20230111-01:46:01.000000000 : 8=FIX.4.2|9=66|35=5|34=2|49=SacombankFDC|52=20230111-01:46:01.000|56=CQG_Gateway|10=042|
20230111-01:47:00.000000000 : 8=FIX.4.2|9=117|35=A|34=1|49=SacombankFDC|52=20230111-01:47:00.000|56=CQG_Gateway|50=TestFIXSessionPersist|96=pass|98=0|108=60|141=Y|10=007|
20230111-01:47:01.000000000 : 8=FIX.4.2|9=167|35=5|49=CQG_Gateway|56=SacombankFDC|34=1|57=TestFIXSessionPersist|52=20230111-01:47:01.175|20173=20230111-01:47:01.175771|58=Your logon is disabled. Contact your FCM.|10=127|
20230111-01:47:01.000000000 : 8=FIX.4.2|9=66|35=5|34=2|49=SacombankFDC|52=20230111-01:47:01.000|56=CQG_Gateway|10=043|
20230111-01:48:03.000000000 : 8=FIX.4.2|9=117|35=A|34=1|49=SacombankFDC|52=20230111-01:48:03.000|56=CQG_Gateway|50=TestFIXSessionPersist|96=pass|98=0|108=60|141=Y|10=011|
20230111-01:48:03.000000000 : 8=FIX.4.2|9=167|35=5|49=CQG_Gateway|56=SacombankFDC|34=1|57=TestFIXSessionPersist|52=20230111-01:48:03.722|20173=20230111-01:48:03.722722|58=Your logon is disabled. Contact your FCM.|10=125|
20230111-01:48:03.000000000 : 8=FIX.4.2|9=66|35=5|34=2|49=SacombankFDC|52=20230111-01:48:03.000|56=CQG_Gateway|10=046|
20230111-01:49:00.000000000 : 8=FIX.4.2|9=117|35=A|34=1|49=SacombankFDC|52=20230111-01:49:00.000|56=CQG_Gateway|50=TestFIXSessionPersist|96=pass|98=0|108=60|141=Y|10=009|
20230111-01:49:02.000000000 : 8=FIX.4.2|9=167|35=5|49=CQG_Gateway|56=SacombankFDC|34=1|57=TestFIXSessionPersist|52=20230111-01:49:01.396|20173=20230111-01:49:01.396698|58=Your logon is disabled. Contact your FCM.|10=149|
20230111-01:49:02.000000000 : 8=FIX.4.2|9=66|35=5|34=2|49=SacombankFDC|52=20230111-01:49:02.000|56=CQG_Gateway|10=046|
20230111-01:50:00.000000000 : 8=FIX.4.2|9=117|35=A|34=1|49=SacombankFDC|52=20230111-01:50:00.000|56=CQG_Gateway|50=TestFIXSessionPersist|96=pass|98=0|108=60|141=Y|10=001|
20230111-01:50:00.000000000 : 8=FIX.4.2|9=167|35=5|49=CQG_Gateway|56=SacombankFDC|34=1|57=TestFIXSessionPersist|52=20230111-01:50:00.981|20173=20230111-01:50:00.981404|58=Your logon is disabled. Contact your FCM.|10=116|
20230111-01:50:00.000000000 : 8=FIX.4.2|9=66|35=5|34=2|49=SacombankFDC|52=20230111-01:50:00.000|56=CQG_Gateway|10=036|
20230111-01:51:01.000000000 : 8=FIX.4.2|9=117|35=A|34=1|49=SacombankFDC|52=20230111-01:51:01.000|56=CQG_Gateway|50=TestFIXSessionPersist|96=pass|98=0|108=60|141=Y|10=003|
20230111-01:51:01.000000000 : 8=FIX.4.2|9=167|35=5|49=CQG_Gateway|56=SacombankFDC|34=1|57=TestFIXSessionPersist|52=20230111-01:51:01.668|20173=20230111-01:51:01.668541|58=Your logon is disabled. Contact your FCM.|10=126|
20230111-01:51:01.000000000 : 8=FIX.4.2|9=66|35=5|34=2|49=SacombankFDC|52=20230111-01:51:01.000|56=CQG_Gateway|10=038|
20230111-01:52:00.000000000 : 8=FIX.4.2|9=117|35=A|34=1|49=SacombankFDC|52=20230111-01:52:00.000|56=CQG_Gateway|50=TestFIXSessionPersist|96=pass|98=0|108=60|141=Y|10=003|
20230111-01:52:01.000000000 : 8=FIX.4.2|9=167|35=5|49=CQG_Gateway|56=SacombankFDC|34=1|57=TestFIXSessionPersist|52=20230111-01:52:01.194|20173=20230111-01:52:01.194101|58=Your logon is disabled. Contact your FCM.|10=108|
20230111-01:52:01.000000000 : 8=FIX.4.2|9=66|35=5|34=2|49=SacombankFDC|52=20230111-01:52:01.000|56=CQG_Gateway|10=039|
20230111-01:53:00.000000000 : 8=FIX.4.2|9=117|35=A|34=1|49=SacombankFDC|52=20230111-01:53:00.000|56=CQG_Gateway|50=TestFIXSessionPersist|96=pass|98=0|108=60|141=Y|10=004|
20230111-01:53:00.000000000 : 8=FIX.4.2|9=167|35=5|49=CQG_Gateway|56=SacombankFDC|34=1|57=TestFIXSessionPersist|52=20230111-01:53:00.768|20173=20230111-01:53:00.768854|58=Your logon is disabled. Contact your FCM.|10=137|
20230111-01:53:00.000000000 : 8=FIX.4.2|9=66|35=5|34=2|49=SacombankFDC|52=20230111-01:53:00.000|56=CQG_Gateway|10=039|
20230111-01:54:00.000000000 : 8=FIX.4.2|9=117|35=A|34=1|49=SacombankFDC|52=20230111-01:54:00.000|56=CQG_Gateway|50=TestFIXSessionPersist|96=pass|98=0|108=60|141=Y|10=005|
20230111-01:54:01.000000000 : 8=FIX.4.2|9=167|35=5|49=CQG_Gateway|56=SacombankFDC|34=1|57=TestFIXSessionPersist|52=20230111-01:54:01.342|20173=20230111-01:54:01.342540|58=Your logon is disabled. Contact your FCM.|10=109|
20230111-01:54:01.000000000 : 8=FIX.4.2|9=66|35=5|34=2|49=SacombankFDC|52=20230111-01:54:01.000|56=CQG_Gateway|10=041|
20230111-01:55:00.000000000 : 8=FIX.4.2|9=117|35=A|34=1|49=SacombankFDC|52=20230111-01:55:00.000|56=CQG_Gateway|50=TestFIXSessionPersist|96=pass|98=0|108=60|141=Y|10=006|
20230111-01:55:01.000000000 : 8=FIX.4.2|9=167|35=5|49=CQG_Gateway|56=SacombankFDC|34=1|57=TestFIXSessionPersist|52=20230111-01:55:01.378|20173=20230111-01:55:01.378910|58=Your logon is disabled. Contact your FCM.|10=130|
20230111-01:55:01.000000000 : 8=FIX.4.2|9=66|35=5|34=2|49=SacombankFDC|52=20230111-01:55:01.000|56=CQG_Gateway|10=042|
20230111-01:56:00.000000000 : 8=FIX.4.2|9=117|35=A|34=1|49=SacombankFDC|52=20230111-01:56:00.000|56=CQG_Gateway|50=TestFIXSessionPersist|96=pass|98=0|108=60|141=Y|10=007|
20230111-01:56:00.000000000 : 8=FIX.4.2|9=167|35=5|49=CQG_Gateway|56=SacombankFDC|34=1|57=TestFIXSessionPersist|52=20230111-01:56:00.957|20173=20230111-01:56:00.957257|58=Your logon is disabled. Contact your FCM.|10=140|
20230111-01:56:00.000000000 : 8=FIX.4.2|9=66|35=5|34=2|49=SacombankFDC|52=20230111-01:56:00.000|56=CQG_Gateway|10=042|
20230111-01:56:43.000000000 : 8=FIX.4.2|9=117|35=A|34=1|49=SacombankFDC|52=20230111-01:56:43.000|56=CQG_Gateway|50=TestFIXSessionPersist|96=pass|98=0|108=60|141=Y|10=014|
20230111-01:56:43.000000000 : 8=FIX.4.2|9=167|35=5|49=CQG_Gateway|56=SacombankFDC|34=1|57=TestFIXSessionPersist|52=20230111-01:56:43.912|20173=20230111-01:56:43.912561|58=Your logon is disabled. Contact your FCM.|10=134|
20230111-01:56:43.000000000 : 8=FIX.4.2|9=66|35=5|34=2|49=SacombankFDC|52=20230111-01:56:43.000|56=CQG_Gateway|10=049|
20230111-01:57:07.000000000 : 8=FIX.4.2|9=117|35=A|34=1|49=SacombankFDC|52=20230111-01:57:07.000|56=CQG_Gateway|50=TestFIXSessionPersist|96=pass|98=0|108=60|141=Y|10=015|
20230111-01:57:07.000000000 : 8=FIX.4.2|9=167|35=5|49=CQG_Gateway|56=SacombankFDC|34=1|57=TestFIXSessionPersist|52=20230111-01:57:07.771|20173=20230111-01:57:07.771971|58=Your logon is disabled. Contact your FCM.|10=147|
20230111-01:57:07.000000000 : 8=FIX.4.2|9=66|35=5|34=2|49=SacombankFDC|52=20230111-01:57:07.000|56=CQG_Gateway|10=050|
20230111-01:57:43.000000000 : 8=FIX.4.2|9=117|35=A|34=1|49=SacombankFDC|52=20230111-01:57:43.000|56=CQG_Gateway|50=TestFIXSessionPersist|96=pass|98=0|108=60|141=Y|10=015|
20230111-01:57:43.000000000 : 8=FIX.4.2|9=167|35=5|49=CQG_Gateway|56=SacombankFDC|34=1|57=TestFIXSessionPersist|52=20230111-01:57:44.154|20173=20230111-01:57:44.155003|58=Your logon is disabled. Contact your FCM.|10=126|
20230111-01:57:43.000000000 : 8=FIX.4.2|9=66|35=5|34=2|49=SacombankFDC|52=20230111-01:57:43.000|56=CQG_Gateway|10=050|
20230111-01:58:43.000000000 : 8=FIX.4.2|9=117|35=A|34=1|49=SacombankFDC|52=20230111-01:58:43.000|56=CQG_Gateway|50=TestFIXSessionPersist|96=pass|98=0|108=60|141=Y|10=016|
20230111-01:58:43.000000000 : 8=FIX.4.2|9=167|35=5|49=CQG_Gateway|56=SacombankFDC|34=1|57=TestFIXSessionPersist|52=20230111-01:58:43.739|20173=20230111-01:58:43.739200|58=Your logon is disabled. Contact your FCM.|10=142|
20230111-01:58:43.000000000 : 8=FIX.4.2|9=66|35=5|34=2|49=SacombankFDC|52=20230111-01:58:43.000|56=CQG_Gateway|10=051|
20230111-01:59:43.000000000 : 8=FIX.4.2|9=117|35=A|34=1|49=SacombankFDC|52=20230111-01:59:43.000|56=CQG_Gateway|50=TestFIXSessionPersist|96=pass|98=0|108=60|141=Y|10=017|
20230111-01:59:44.000000000 : 8=FIX.4.2|9=167|35=5|49=CQG_Gateway|56=SacombankFDC|34=1|57=TestFIXSessionPersist|52=20230111-01:59:44.326|20173=20230111-01:59:44.326210|58=Your logon is disabled. Contact your FCM.|10=131|
20230111-01:59:44.000000000 : 8=FIX.4.2|9=66|35=5|34=2|49=SacombankFDC|52=20230111-01:59:44.000|56=CQG_Gateway|10=053|
20230111-02:00:43.000000000 : 8=FIX.4.2|9=117|35=A|34=1|49=SacombankFDC|52=20230111-02:00:43.000|56=CQG_Gateway|50=TestFIXSessionPersist|96=pass|98=0|108=60|141=Y|10=004|
20230111-02:00:43.000000000 : 8=FIX.4.2|9=167|35=5|49=CQG_Gateway|56=SacombankFDC|34=1|57=TestFIXSessionPersist|52=20230111-02:00:44.124|20173=20230111-02:00:44.124770|58=Your logon is disabled. Contact your FCM.|10=108|
20230111-02:00:43.000000000 : 8=FIX.4.2|9=66|35=5|34=2|49=SacombankFDC|52=20230111-02:00:43.000|56=CQG_Gateway|10=039|
20230111-02:01:44.000000000 : 8=FIX.4.2|9=117|35=A|34=1|49=SacombankFDC|52=20230111-02:01:44.000|56=CQG_Gateway|50=TestFIXSessionPersist|96=pass|98=0|108=60|141=Y|10=006|
20230111-02:01:44.000000000 : 8=FIX.4.2|9=167|35=5|49=CQG_Gateway|56=SacombankFDC|34=1|57=TestFIXSessionPersist|52=20230111-02:01:44.646|20173=20230111-02:01:44.646153|58=Your logon is disabled. Contact your FCM.|10=123|
20230111-02:01:44.000000000 : 8=FIX.4.2|9=66|35=5|34=2|49=SacombankFDC|52=20230111-02:01:44.000|56=CQG_Gateway|10=041|
20230111-02:02:43.000000000 : 8=FIX.4.2|9=117|35=A|34=1|49=SacombankFDC|52=20230111-02:02:43.000|56=CQG_Gateway|50=TestFIXSessionPersist|96=pass|98=0|108=60|141=Y|10=006|
20230111-02:02:44.000000000 : 8=FIX.4.2|9=167|35=5|49=CQG_Gateway|56=SacombankFDC|34=1|57=TestFIXSessionPersist|52=20230111-02:02:44.201|20173=20230111-02:02:44.201336|58=Your logon is disabled. Contact your FCM.|10=102|
20230111-02:02:44.000000000 : 8=FIX.4.2|9=66|35=5|34=2|49=SacombankFDC|52=20230111-02:02:44.000|56=CQG_Gateway|10=042|
20230111-03:42:56.000000000 : 8=FIX.4.2|9=117|35=A|34=1|49=SacombankFDC|52=20230111-03:42:56.000|56=CQG_Gateway|50=TestFIXSessionPersist|96=pass|98=0|108=60|141=Y|10=015|
20230111-03:42:56.000000000 : 8=FIX.4.2|9=167|35=5|49=CQG_Gateway|56=SacombankFDC|34=1|57=TestFIXSessionPersist|52=20230111-03:42:56.733|20173=20230111-03:42:56.733619|58=Your logon is disabled. Contact your FCM.|10=142|
20230111-03:42:56.000000000 : 8=FIX.4.2|9=66|35=5|34=2|49=SacombankFDC|52=20230111-03:42:56.000|56=CQG_Gateway|10=050|
20230111-03:43:56.000000000 : 8=FIX.4.2|9=117|35=A|34=1|49=SacombankFDC|52=20230111-03:43:56.000|56=CQG_Gateway|50=TestFIXSessionPersist|96=pass|98=0|108=60|141=Y|10=016|
20230111-03:43:56.000000000 : 8=FIX.4.2|9=167|35=5|49=CQG_Gateway|56=SacombankFDC|34=1|57=TestFIXSessionPersist|52=20230111-03:43:57.012|20173=20230111-03:43:57.012511|58=Your logon is disabled. Contact your FCM.|10=117|
20230111-03:43:56.000000000 : 8=FIX.4.2|9=66|35=5|34=2|49=SacombankFDC|52=20230111-03:43:56.000|56=CQG_Gateway|10=051|
20230111-03:44:57.000000000 : 8=FIX.4.2|9=117|35=A|34=1|49=SacombankFDC|52=20230111-03:44:57.000|56=CQG_Gateway|50=TestFIXSessionPersist|96=pass|98=0|108=60|141=Y|10=018|
20230111-03:44:57.000000000 : 8=FIX.4.2|9=167|35=5|49=CQG_Gateway|56=SacombankFDC|34=1|57=TestFIXSessionPersist|52=20230111-03:44:57.527|20173=20230111-03:44:57.527397|58=Your logon is disabled. Contact your FCM.|10=153|
20230111-03:44:57.000000000 : 8=FIX.4.2|9=66|35=5|34=2|49=SacombankFDC|52=20230111-03:44:57.000|56=CQG_Gateway|10=053|
20230111-03:45:56.000000000 : 8=FIX.4.2|9=117|35=A|34=1|49=SacombankFDC|52=20230111-03:45:56.000|56=CQG_Gateway|50=TestFIXSessionPersist|96=pass|98=0|108=60|141=Y|10=018|
20230111-03:45:56.000000000 : 8=FIX.4.2|9=167|35=5|49=CQG_Gateway|56=SacombankFDC|34=1|57=TestFIXSessionPersist|52=20230111-03:45:57.103|20173=20230111-03:45:57.103571|58=Your logon is disabled. Contact your FCM.|10=129|
20230111-03:45:56.000000000 : 8=FIX.4.2|9=66|35=5|34=2|49=SacombankFDC|52=20230111-03:45:56.000|56=CQG_Gateway|10=053|
20230111-03:46:56.000000000 : 8=FIX.4.2|9=117|35=A|34=1|49=SacombankFDC|52=20230111-03:46:56.000|56=CQG_Gateway|50=TestFIXSessionPersist|96=pass|98=0|108=60|141=Y|10=019|
20230111-03:46:56.000000000 : 8=FIX.4.2|9=167|35=5|49=CQG_Gateway|56=SacombankFDC|34=1|57=TestFIXSessionPersist|52=20230111-03:46:56.744|20173=20230111-03:46:56.744519|58=Your logon is disabled. Contact your FCM.|10=153|
20230111-03:46:56.000000000 : 8=FIX.4.2|9=66|35=5|34=2|49=SacombankFDC|52=20230111-03:46:56.000|56=CQG_Gateway|10=054|
20230111-03:47:57.000000000 : 8=FIX.4.2|9=117|35=A|34=1|49=SacombankFDC|52=20230111-03:47:57.000|56=CQG_Gateway|50=TestFIXSessionPersist|96=pass|98=0|108=60|141=Y|10=021|
20230111-03:47:57.000000000 : 8=FIX.4.2|9=167|35=5|49=CQG_Gateway|56=SacombankFDC|34=1|57=TestFIXSessionPersist|52=20230111-03:47:57.564|20173=20230111-03:47:57.564712|58=Your logon is disabled. Contact your FCM.|10=152|
20230111-03:47:57.000000000 : 8=FIX.4.2|9=66|35=5|34=2|49=SacombankFDC|52=20230111-03:47:57.000|56=CQG_Gateway|10=056|
20230111-03:48:56.000000000 : 8=FIX.4.2|9=117|35=A|34=1|49=SacombankFDC|52=20230111-03:48:56.000|56=CQG_Gateway|50=TestFIXSessionPersist|96=pass|98=0|108=60|141=Y|10=021|
20230111-03:48:56.000000000 : 8=FIX.4.2|9=167|35=5|49=CQG_Gateway|56=SacombankFDC|34=1|57=TestFIXSessionPersist|52=20230111-03:48:57.155|20173=20230111-03:48:57.155339|58=Your logon is disabled. Contact your FCM.|10=151|
20230111-03:48:56.000000000 : 8=FIX.4.2|9=66|35=5|34=2|49=SacombankFDC|52=20230111-03:48:56.000|56=CQG_Gateway|10=056|
20230111-03:49:56.000000000 : 8=FIX.4.2|9=117|35=A|34=1|49=SacombankFDC|52=20230111-03:49:56.000|56=CQG_Gateway|50=TestFIXSessionPersist|96=pass|98=0|108=60|141=Y|10=022|
20230111-03:49:56.000000000 : 8=FIX.4.2|9=167|35=5|49=CQG_Gateway|56=SacombankFDC|34=1|57=TestFIXSessionPersist|52=20230111-03:49:56.833|20173=20230111-03:49:56.833909|58=Your logon is disabled. Contact your FCM.|10=160|
20230111-03:49:56.000000000 : 8=FIX.4.2|9=66|35=5|34=2|49=SacombankFDC|52=20230111-03:49:56.000|56=CQG_Gateway|10=057|
20230111-03:50:57.000000000 : 8=FIX.4.2|9=117|35=A|34=1|49=SacombankFDC|52=20230111-03:50:57.000|56=CQG_Gateway|50=TestFIXSessionPersist|96=pass|98=0|108=60|141=Y|10=015|
20230111-03:50:57.000000000 : 8=FIX.4.2|9=167|35=5|49=CQG_Gateway|56=SacombankFDC|34=1|57=TestFIXSessionPersist|52=20230111-03:50:57.469|20173=20230111-03:50:57.469259|58=Your logon is disabled. Contact your FCM.|10=154|
20230111-03:50:57.000000000 : 8=FIX.4.2|9=66|35=5|34=2|49=SacombankFDC|52=20230111-03:50:57.000|56=CQG_Gateway|10=050|
20230111-03:51:56.000000000 : 8=FIX.4.2|9=117|35=A|34=1|49=SacombankFDC|52=20230111-03:51:56.000|56=CQG_Gateway|50=TestFIXSessionPersist|96=pass|98=0|108=60|141=Y|10=015|
20230111-03:51:56.000000000 : 8=FIX.4.2|9=167|35=5|49=CQG_Gateway|56=SacombankFDC|34=1|57=TestFIXSessionPersist|52=20230111-03:51:57.034|20173=20230111-03:51:57.034949|58=Your logon is disabled. Contact your FCM.|10=138|
20230111-03:51:56.000000000 : 8=FIX.4.2|9=66|35=5|34=2|49=SacombankFDC|52=20230111-03:51:56.000|56=CQG_Gateway|10=050|
20230111-03:52:57.000000000 : 8=FIX.4.2|9=117|35=A|34=1|49=SacombankFDC|52=20230111-03:52:57.000|56=CQG_Gateway|50=TestFIXSessionPersist|96=pass|98=0|108=60|141=Y|10=017|
20230111-03:52:57.000000000 : 8=FIX.4.2|9=167|35=5|49=CQG_Gateway|56=SacombankFDC|34=1|57=TestFIXSessionPersist|52=20230111-03:52:57.666|20173=20230111-03:52:57.666117|58=Your logon is disabled. Contact your FCM.|10=149|
20230111-03:52:57.000000000 : 8=FIX.4.2|9=66|35=5|34=2|49=SacombankFDC|52=20230111-03:52:57.000|56=CQG_Gateway|10=052|
20230111-03:53:57.000000000 : 8=FIX.4.2|9=117|35=A|34=1|49=SacombankFDC|52=20230111-03:53:57.000|56=CQG_Gateway|50=TestFIXSessionPersist|96=pass|98=0|108=60|141=Y|10=018|
20230111-03:53:57.000000000 : 8=FIX.4.2|9=167|35=5|49=CQG_Gateway|56=SacombankFDC|34=1|57=TestFIXSessionPersist|52=20230111-03:53:57.590|20173=20230111-03:53:57.590181|58=Your logon is disabled. Contact your FCM.|10=144|
20230111-03:53:57.000000000 : 8=FIX.4.2|9=66|35=5|34=2|49=SacombankFDC|52=20230111-03:53:57.000|56=CQG_Gateway|10=053|
20230111-03:54:56.000000000 : 8=FIX.4.2|9=117|35=A|34=1|49=SacombankFDC|52=20230111-03:54:56.000|56=CQG_Gateway|50=TestFIXSessionPersist|96=pass|98=0|108=60|141=Y|10=018|
20230111-03:54:57.000000000 : 8=FIX.4.2|9=167|35=5|49=CQG_Gateway|56=SacombankFDC|34=1|57=TestFIXSessionPersist|52=20230111-03:54:57.636|20173=20230111-03:54:57.636112|58=Your logon is disabled. Contact your FCM.|10=142|
20230111-03:54:57.000000000 : 8=FIX.4.2|9=66|35=5|34=2|49=SacombankFDC|52=20230111-03:54:57.000|56=CQG_Gateway|10=054|
20230111-03:55:56.000000000 : 8=FIX.4.2|9=117|35=A|34=1|49=SacombankFDC|52=20230111-03:55:56.000|56=CQG_Gateway|50=TestFIXSessionPersist|96=pass|98=0|108=60|141=Y|10=019|
20230111-03:55:56.000000000 : 8=FIX.4.2|9=167|35=5|49=CQG_Gateway|56=SacombankFDC|34=1|57=TestFIXSessionPersist|52=20230111-03:55:56.831|20173=20230111-03:55:56.831798|58=Your logon is disabled. Contact your FCM.|10=156|
20230111-03:55:56.000000000 : 8=FIX.4.2|9=66|35=5|34=2|49=SacombankFDC|52=20230111-03:55:56.000|56=CQG_Gateway|10=054|
20230111-03:56:57.000000000 : 8=FIX.4.2|9=117|35=A|34=1|49=SacombankFDC|52=20230111-03:56:56.000|56=CQG_Gateway|50=TestFIXSessionPersist|96=pass|98=0|108=60|141=Y|10=020|
20230111-03:56:57.000000000 : 8=FIX.4.2|9=167|35=5|49=CQG_Gateway|56=SacombankFDC|34=1|57=TestFIXSessionPersist|52=20230111-03:56:57.536|20173=20230111-03:56:57.536683|58=Your logon is disabled. Contact your FCM.|10=157|
20230111-03:56:57.000000000 : 8=FIX.4.2|9=66|35=5|34=2|49=SacombankFDC|52=20230111-03:56:57.000|56=CQG_Gateway|10=056|
20230111-03:57:56.000000000 : 8=FIX.4.2|9=117|35=A|34=1|49=SacombankFDC|52=20230111-03:57:56.000|56=CQG_Gateway|50=TestFIXSessionPersist|96=pass|98=0|108=60|141=Y|10=021|
20230111-03:57:56.000000000 : 8=FIX.4.2|9=167|35=5|49=CQG_Gateway|56=SacombankFDC|34=1|57=TestFIXSessionPersist|52=20230111-03:57:57.161|20173=20230111-03:57:57.161247|58=Your logon is disabled. Contact your FCM.|10=143|
20230111-03:57:56.000000000 : 8=FIX.4.2|9=66|35=5|34=2|49=SacombankFDC|52=20230111-03:57:56.000|56=CQG_Gateway|10=056|
20230111-03:58:57.000000000 : 8=FIX.4.2|9=117|35=A|34=1|49=SacombankFDC|52=20230111-03:58:57.000|56=CQG_Gateway|50=TestFIXSessionPersist|96=pass|98=0|108=60|141=Y|10=023|
20230111-03:58:57.000000000 : 8=FIX.4.2|9=167|35=5|49=CQG_Gateway|56=SacombankFDC|34=1|57=TestFIXSessionPersist|52=20230111-03:58:57.519|20173=20230111-03:58:57.519052|58=Your logon is disabled. Contact your FCM.|10=153|
20230111-03:58:57.000000000 : 8=FIX.4.2|9=66|35=5|34=2|49=SacombankFDC|52=20230111-03:58:57.000|56=CQG_Gateway|10=058|
20230111-03:59:56.000000000 : 8=FIX.4.2|9=117|35=A|34=1|49=SacombankFDC|52=20230111-03:59:56.000|56=CQG_Gateway|50=TestFIXSessionPersist|96=pass|98=0|108=60|141=Y|10=023|
20230111-03:59:57.000000000 : 8=FIX.4.2|9=167|35=5|49=CQG_Gateway|56=SacombankFDC|34=1|57=TestFIXSessionPersist|52=20230111-03:59:57.357|20173=20230111-03:59:57.357124|58=Your logon is disabled. Contact your FCM.|10=155|
20230111-03:59:57.000000000 : 8=FIX.4.2|9=66|35=5|34=2|49=SacombankFDC|52=20230111-03:59:57.000|56=CQG_Gateway|10=059|
20230111-04:00:56.000000000 : 8=FIX.4.2|9=117|35=A|34=1|49=SacombankFDC|52=20230111-04:00:56.000|56=CQG_Gateway|50=TestFIXSessionPersist|96=pass|98=0|108=60|141=Y|10=010|
20230111-04:00:56.000000000 : 8=FIX.4.2|9=167|35=5|49=CQG_Gateway|56=SacombankFDC|34=1|57=TestFIXSessionPersist|52=20230111-04:00:56.820|20173=20230111-04:00:56.820274|58=Your logon is disabled. Contact your FCM.|10=123|
20230111-04:00:56.000000000 : 8=FIX.4.2|9=66|35=5|34=2|49=SacombankFDC|52=20230111-04:00:56.000|56=CQG_Gateway|10=045|
20230111-04:01:56.000000000 : 8=FIX.4.2|9=117|35=A|34=1|49=SacombankFDC|52=20230111-04:01:56.000|56=CQG_Gateway|50=TestFIXSessionPersist|96=pass|98=0|108=60|141=Y|10=011|
20230111-04:01:57.000000000 : 8=FIX.4.2|9=167|35=5|49=CQG_Gateway|56=SacombankFDC|34=1|57=TestFIXSessionPersist|52=20230111-04:01:57.388|20173=20230111-04:01:57.388011|58=Your logon is disabled. Contact your FCM.|10=134|
20230111-04:01:57.000000000 : 8=FIX.4.2|9=66|35=5|34=2|49=SacombankFDC|52=20230111-04:01:57.000|56=CQG_Gateway|10=047|
20230111-04:02:56.000000000 : 8=FIX.4.2|9=117|35=A|34=1|49=SacombankFDC|52=20230111-04:02:56.000|56=CQG_Gateway|50=TestFIXSessionPersist|96=pass|98=0|108=60|141=Y|10=012|
20230111-04:02:56.000000000 : 8=FIX.4.2|9=167|35=5|49=CQG_Gateway|56=SacombankFDC|34=1|57=TestFIXSessionPersist|52=20230111-04:02:56.956|20173=20230111-04:02:56.956192|58=Your logon is disabled. Contact your FCM.|10=146|
20230111-04:02:56.000000000 : 8=FIX.4.2|9=66|35=5|34=2|49=SacombankFDC|52=20230111-04:02:56.000|56=CQG_Gateway|10=047|
20230111-04:03:57.000000000 : 8=FIX.4.2|9=117|35=A|34=1|49=SacombankFDC|52=20230111-04:03:57.000|56=CQG_Gateway|50=TestFIXSessionPersist|96=pass|98=0|108=60|141=Y|10=014|
20230111-04:03:57.000000000 : 8=FIX.4.2|9=167|35=5|49=CQG_Gateway|56=SacombankFDC|34=1|57=TestFIXSessionPersist|52=20230111-04:03:57.512|20173=20230111-04:03:57.512406|58=Your logon is disabled. Contact your FCM.|10=124|
20230111-04:03:57.000000000 : 8=FIX.4.2|9=66|35=5|34=2|49=SacombankFDC|52=20230111-04:03:57.000|56=CQG_Gateway|10=049|
20230111-04:04:56.000000000 : 8=FIX.4.2|9=117|35=A|34=1|49=SacombankFDC|52=20230111-04:04:56.000|56=CQG_Gateway|50=TestFIXSessionPersist|96=pass|98=0|108=60|141=Y|10=014|
20230111-04:04:57.000000000 : 8=FIX.4.2|9=167|35=5|49=CQG_Gateway|56=SacombankFDC|34=1|57=TestFIXSessionPersist|52=20230111-04:04:57.064|20173=20230111-04:04:57.064439|58=Your logon is disabled. Contact your FCM.|10=136|
20230111-04:04:57.000000000 : 8=FIX.4.2|9=66|35=5|34=2|49=SacombankFDC|52=20230111-04:04:57.000|56=CQG_Gateway|10=050|
20230111-04:05:57.000000000 : 8=FIX.4.2|9=117|35=A|34=1|49=SacombankFDC|52=20230111-04:05:57.000|56=CQG_Gateway|50=TestFIXSessionPersist|96=pass|98=0|108=60|141=Y|10=016|
20230111-04:05:57.000000000 : 8=FIX.4.2|9=167|35=5|49=CQG_Gateway|56=SacombankFDC|34=1|57=TestFIXSessionPersist|52=20230111-04:05:58.113|20173=20230111-04:05:58.113359|58=Your logon is disabled. Contact your FCM.|10=131|
20230111-04:05:57.000000000 : 8=FIX.4.2|9=66|35=5|34=2|49=SacombankFDC|52=20230111-04:05:57.000|56=CQG_Gateway|10=051|
20230111-04:06:57.000000000 : 8=FIX.4.2|9=117|35=A|34=1|49=SacombankFDC|52=20230111-04:06:57.000|56=CQG_Gateway|50=TestFIXSessionPersist|96=pass|98=0|108=60|141=Y|10=017|
20230111-04:06:57.000000000 : 8=FIX.4.2|9=167|35=5|49=CQG_Gateway|56=SacombankFDC|34=1|57=TestFIXSessionPersist|52=20230111-04:06:57.498|20173=20230111-04:06:57.498896|58=Your logon is disabled. Contact your FCM.|10=169|
20230111-04:06:57.000000000 : 8=FIX.4.2|9=66|35=5|34=2|49=SacombankFDC|52=20230111-04:06:57.000|56=CQG_Gateway|10=052|
20230111-04:07:56.000000000 : 8=FIX.4.2|9=117|35=A|34=1|49=SacombankFDC|52=20230111-04:07:56.000|56=CQG_Gateway|50=TestFIXSessionPersist|96=pass|98=0|108=60|141=Y|10=017|
20230111-04:07:56.000000000 : 8=FIX.4.2|9=167|35=5|49=CQG_Gateway|56=SacombankFDC|34=1|57=TestFIXSessionPersist|52=20230111-04:07:56.989|20173=20230111-04:07:56.989520|58=Your logon is disabled. Contact your FCM.|10=163|
20230111-04:07:56.000000000 : 8=FIX.4.2|9=66|35=5|34=2|49=SacombankFDC|52=20230111-04:07:56.000|56=CQG_Gateway|10=052|
20230111-04:09:00.000000000 : 8=FIX.4.2|9=117|35=A|34=1|49=SacombankFDC|52=20230111-04:09:00.000|56=CQG_Gateway|50=TestFIXSessionPersist|96=pass|98=0|108=60|141=Y|10=008|
20230111-04:09:00.000000000 : 8=FIX.4.2|9=167|35=5|49=CQG_Gateway|56=SacombankFDC|34=1|57=TestFIXSessionPersist|52=20230111-04:09:00.627|20173=20230111-04:09:00.627301|58=Your logon is disabled. Contact your FCM.|10=120|
20230111-04:09:00.000000000 : 8=FIX.4.2|9=66|35=5|34=2|49=SacombankFDC|52=20230111-04:09:00.000|56=CQG_Gateway|10=043|
20230111-04:09:56.000000000 : 8=FIX.4.2|9=117|35=A|34=1|49=SacombankFDC|52=20230111-04:09:56.000|56=CQG_Gateway|50=TestFIXSessionPersist|96=pass|98=0|108=60|141=Y|10=019|
20230111-04:09:57.000000000 : 8=FIX.4.2|9=167|35=5|49=CQG_Gateway|56=SacombankFDC|34=1|57=TestFIXSessionPersist|52=20230111-04:09:57.213|20173=20230111-04:09:57.213473|58=Your logon is disabled. Contact your FCM.|10=136|
20230111-04:09:57.000000000 : 8=FIX.4.2|9=66|35=5|34=2|49=SacombankFDC|52=20230111-04:09:57.000|56=CQG_Gateway|10=055|
20230111-04:10:56.000000000 : 8=FIX.4.2|9=117|35=A|34=1|49=SacombankFDC|52=20230111-04:10:56.000|56=CQG_Gateway|50=TestFIXSessionPersist|96=pass|98=0|108=60|141=Y|10=011|
20230111-04:10:56.000000000 : 8=FIX.4.2|9=167|35=5|49=CQG_Gateway|56=SacombankFDC|34=1|57=TestFIXSessionPersist|52=20230111-04:10:56.971|20173=20230111-04:10:56.971695|58=Your logon is disabled. Contact your FCM.|10=146|
20230111-04:10:56.000000000 : 8=FIX.4.2|9=66|35=5|34=2|49=SacombankFDC|52=20230111-04:10:56.000|56=CQG_Gateway|10=046|
20230111-04:11:57.000000000 : 8=FIX.4.2|9=117|35=A|34=1|49=SacombankFDC|52=20230111-04:11:57.000|56=CQG_Gateway|50=TestFIXSessionPersist|96=pass|98=0|108=60|141=Y|10=013|
20230111-04:11:57.000000000 : 8=FIX.4.2|9=167|35=5|49=CQG_Gateway|56=SacombankFDC|34=1|57=TestFIXSessionPersist|52=20230111-04:11:57.787|20173=20230111-04:11:57.787811|58=Your logon is disabled. Contact your FCM.|10=150|
20230111-04:11:57.000000000 : 8=FIX.4.2|9=66|35=5|34=2|49=SacombankFDC|52=20230111-04:11:57.000|56=CQG_Gateway|10=048|
20230111-04:12:56.000000000 : 8=FIX.4.2|9=117|35=A|34=1|49=SacombankFDC|52=20230111-04:12:56.000|56=CQG_Gateway|50=TestFIXSessionPersist|96=pass|98=0|108=60|141=Y|10=013|
20230111-04:12:57.000000000 : 8=FIX.4.2|9=167|35=5|49=CQG_Gateway|56=SacombankFDC|34=1|57=TestFIXSessionPersist|52=20230111-04:12:57.297|20173=20230111-04:12:57.297918|58=Your logon is disabled. Contact your FCM.|10=152|
20230111-04:12:57.000000000 : 8=FIX.4.2|9=66|35=5|34=2|49=SacombankFDC|52=20230111-04:12:57.000|56=CQG_Gateway|10=049|
20230111-04:13:56.000000000 : 8=FIX.4.2|9=117|35=A|34=1|49=SacombankFDC|52=20230111-04:13:56.000|56=CQG_Gateway|50=TestFIXSessionPersist|96=pass|98=0|108=60|141=Y|10=014|
20230111-04:13:56.000000000 : 8=FIX.4.2|9=167|35=5|49=CQG_Gateway|56=SacombankFDC|34=1|57=TestFIXSessionPersist|52=20230111-04:13:56.772|20173=20230111-04:13:56.772299|58=Your logon is disabled. Contact your FCM.|10=150|
20230111-04:13:56.000000000 : 8=FIX.4.2|9=66|35=5|34=2|49=SacombankFDC|52=20230111-04:13:56.000|56=CQG_Gateway|10=049|
20230111-04:14:56.000000000 : 8=FIX.4.2|9=117|35=A|34=1|49=SacombankFDC|52=20230111-04:14:56.000|56=CQG_Gateway|50=TestFIXSessionPersist|96=pass|98=0|108=60|141=Y|10=015|
20230111-04:14:57.000000000 : 8=FIX.4.2|9=167|35=5|49=CQG_Gateway|56=SacombankFDC|34=1|57=TestFIXSessionPersist|52=20230111-04:14:57.270|20173=20230111-04:14:57.270538|58=Your logon is disabled. Contact your FCM.|10=136|
20230111-04:14:57.000000000 : 8=FIX.4.2|9=66|35=5|34=2|49=SacombankFDC|52=20230111-04:14:57.000|56=CQG_Gateway|10=051|
20230111-04:15:56.000000000 : 8=FIX.4.2|9=117|35=A|34=1|49=SacombankFDC|52=20230111-04:15:56.000|56=CQG_Gateway|50=TestFIXSessionPersist|96=pass|98=0|108=60|141=Y|10=016|
20230111-04:15:56.000000000 : 8=FIX.4.2|9=167|35=5|49=CQG_Gateway|56=SacombankFDC|34=1|57=TestFIXSessionPersist|52=20230111-04:15:56.867|20173=20230111-04:15:56.867956|58=Your logon is disabled. Contact your FCM.|10=164|
20230111-04:15:56.000000000 : 8=FIX.4.2|9=66|35=5|34=2|49=SacombankFDC|52=20230111-04:15:56.000|56=CQG_Gateway|10=051|
20230111-04:16:56.000000000 : 8=FIX.4.2|9=117|35=A|34=1|49=SacombankFDC|52=20230111-04:16:56.000|56=CQG_Gateway|50=TestFIXSessionPersist|96=pass|98=0|108=60|141=Y|10=017|
20230111-04:16:57.000000000 : 8=FIX.4.2|9=167|35=5|49=CQG_Gateway|56=SacombankFDC|34=1|57=TestFIXSessionPersist|52=20230111-04:16:57.439|20173=20230111-04:16:57.439013|58=Your logon is disabled. Contact your FCM.|10=142|
20230111-04:16:57.000000000 : 8=FIX.4.2|9=66|35=5|34=2|49=SacombankFDC|52=20230111-04:16:57.000|56=CQG_Gateway|10=053|
20230111-04:17:56.000000000 : 8=FIX.4.2|9=117|35=A|34=1|49=SacombankFDC|52=20230111-04:17:56.000|56=CQG_Gateway|50=TestFIXSessionPersist|96=pass|98=0|108=60|141=Y|10=018|
20230111-04:17:57.000000000 : 8=FIX.4.2|9=167|35=5|49=CQG_Gateway|56=SacombankFDC|34=1|57=TestFIXSessionPersist|52=20230111-04:17:57.243|20173=20230111-04:17:57.243733|58=Your logon is disabled. Contact your FCM.|10=139|
20230111-04:17:57.000000000 : 8=FIX.4.2|9=66|35=5|34=2|49=SacombankFDC|52=20230111-04:17:57.000|56=CQG_Gateway|10=054|
20230111-04:19:05.000000000 : 8=FIX.4.2|9=117|35=A|34=1|49=SacombankFDC|52=20230111-04:19:05.000|56=CQG_Gateway|50=TestFIXSessionPersist|96=pass|98=0|108=60|141=Y|10=014|
20230111-04:19:05.000000000 : 8=FIX.4.2|9=167|35=5|49=CQG_Gateway|56=SacombankFDC|34=1|57=TestFIXSessionPersist|52=20230111-04:19:05.907|20173=20230111-04:19:05.907655|58=Your logon is disabled. Contact your FCM.|10=146|
20230111-04:19:05.000000000 : 8=FIX.4.2|9=66|35=5|34=2|49=SacombankFDC|52=20230111-04:19:05.000|56=CQG_Gateway|10=049|
20230111-04:19:57.000000000 : 8=FIX.4.2|9=117|35=A|34=1|49=SacombankFDC|52=20230111-04:19:56.000|56=CQG_Gateway|50=TestFIXSessionPersist|96=pass|98=0|108=60|141=Y|10=020|
20230111-04:19:57.000000000 : 8=FIX.4.2|9=167|35=5|49=CQG_Gateway|56=SacombankFDC|34=1|57=TestFIXSessionPersist|52=20230111-04:19:57.455|20173=20230111-04:19:57.455662|58=Your logon is disabled. Contact your FCM.|10=154|
20230111-04:19:57.000000000 : 8=FIX.4.2|9=66|35=5|34=2|49=SacombankFDC|52=20230111-04:19:57.000|56=CQG_Gateway|10=056|
20230111-04:20:56.000000000 : 8=FIX.4.2|9=117|35=A|34=1|49=SacombankFDC|52=20230111-04:20:56.000|56=CQG_Gateway|50=TestFIXSessionPersist|96=pass|98=0|108=60|141=Y|10=012|
20230111-04:20:57.000000000 : 8=FIX.4.2|9=167|35=5|49=CQG_Gateway|56=SacombankFDC|34=1|57=TestFIXSessionPersist|52=20230111-04:20:57.646|20173=20230111-04:20:57.646409|58=Your logon is disabled. Contact your FCM.|10=141|
20230111-04:20:57.000000000 : 8=FIX.4.2|9=66|35=5|34=2|49=SacombankFDC|52=20230111-04:20:57.000|56=CQG_Gateway|10=048|
20230111-04:21:57.000000000 : 8=FIX.4.2|9=117|35=A|34=1|49=SacombankFDC|52=20230111-04:21:57.000|56=CQG_Gateway|50=TestFIXSessionPersist|96=pass|98=0|108=60|141=Y|10=014|
20230111-04:21:57.000000000 : 8=FIX.4.2|9=167|35=5|49=CQG_Gateway|56=SacombankFDC|34=1|57=TestFIXSessionPersist|52=20230111-04:21:57.605|20173=20230111-04:21:57.605648|58=Your logon is disabled. Contact your FCM.|10=138|
20230111-04:21:57.000000000 : 8=FIX.4.2|9=66|35=5|34=2|49=SacombankFDC|52=20230111-04:21:57.000|56=CQG_Gateway|10=049|
20230111-04:22:59.000000000 : 8=FIX.4.2|9=117|35=A|34=1|49=SacombankFDC|52=20230111-04:22:59.000|56=CQG_Gateway|50=TestFIXSessionPersist|96=pass|98=0|108=60|141=Y|10=017|
20230111-04:22:59.000000000 : 8=FIX.4.2|9=167|35=5|49=CQG_Gateway|56=SacombankFDC|34=1|57=TestFIXSessionPersist|52=20230111-04:23:00.148|20173=20230111-04:23:00.148617|58=Your logon is disabled. Contact your FCM.|10=118|
20230111-04:22:59.000000000 : 8=FIX.4.2|9=66|35=5|34=2|49=SacombankFDC|52=20230111-04:22:59.000|56=CQG_Gateway|10=052|
20230111-04:23:56.000000000 : 8=FIX.4.2|9=117|35=A|34=1|49=SacombankFDC|52=20230111-04:23:56.000|56=CQG_Gateway|50=TestFIXSessionPersist|96=pass|98=0|108=60|141=Y|10=015|
20230111-04:23:56.000000000 : 8=FIX.4.2|9=167|35=5|49=CQG_Gateway|56=SacombankFDC|34=1|57=TestFIXSessionPersist|52=20230111-04:23:56.830|20173=20230111-04:23:56.830605|58=Your logon is disabled. Contact your FCM.|10=133|
20230111-04:23:56.000000000 : 8=FIX.4.2|9=66|35=5|34=2|49=SacombankFDC|52=20230111-04:23:56.000|56=CQG_Gateway|10=050|
20230111-04:24:57.000000000 : 8=FIX.4.2|9=117|35=A|34=1|49=SacombankFDC|52=20230111-04:24:57.000|56=CQG_Gateway|50=TestFIXSessionPersist|96=pass|98=0|108=60|141=Y|10=017|
20230111-04:24:57.000000000 : 8=FIX.4.2|9=167|35=5|49=CQG_Gateway|56=SacombankFDC|34=1|57=TestFIXSessionPersist|52=20230111-04:24:57.564|20173=20230111-04:24:57.564626|58=Your logon is disabled. Contact your FCM.|10=148|
20230111-04:24:57.000000000 : 8=FIX.4.2|9=66|35=5|34=2|49=SacombankFDC|52=20230111-04:24:57.000|56=CQG_Gateway|10=052|
20230111-04:25:56.000000000 : 8=FIX.4.2|9=117|35=A|34=1|49=SacombankFDC|52=20230111-04:25:56.000|56=CQG_Gateway|50=TestFIXSessionPersist|96=pass|98=0|108=60|141=Y|10=017|
20230111-04:25:56.000000000 : 8=FIX.4.2|9=167|35=5|49=CQG_Gateway|56=SacombankFDC|34=1|57=TestFIXSessionPersist|52=20230111-04:25:57.108|20173=20230111-04:25:57.108177|58=Your logon is disabled. Contact your FCM.|10=139|
20230111-04:25:56.000000000 : 8=FIX.4.2|9=66|35=5|34=2|49=SacombankFDC|52=20230111-04:25:56.000|56=CQG_Gateway|10=052|
20230111-04:26:56.000000000 : 8=FIX.4.2|9=117|35=A|34=1|49=SacombankFDC|52=20230111-04:26:56.000|56=CQG_Gateway|50=TestFIXSessionPersist|96=pass|98=0|108=60|141=Y|10=018|
20230111-04:26:56.000000000 : 8=FIX.4.2|9=167|35=5|49=CQG_Gateway|56=SacombankFDC|34=1|57=TestFIXSessionPersist|52=20230111-04:26:56.820|20173=20230111-04:26:56.820824|58=Your logon is disabled. Contact your FCM.|10=140|
20230111-04:26:56.000000000 : 8=FIX.4.2|9=66|35=5|34=2|49=SacombankFDC|52=20230111-04:26:56.000|56=CQG_Gateway|10=053|
20230111-04:27:56.000000000 : 8=FIX.4.2|9=117|35=A|34=1|49=SacombankFDC|52=20230111-04:27:56.000|56=CQG_Gateway|50=TestFIXSessionPersist|96=pass|98=0|108=60|141=Y|10=019|
20230111-04:27:57.000000000 : 8=FIX.4.2|9=167|35=5|49=CQG_Gateway|56=SacombankFDC|34=1|57=TestFIXSessionPersist|52=20230111-04:27:57.478|20173=20230111-04:27:57.478938|58=Your logon is disabled. Contact your FCM.|10=168|
20230111-04:27:57.000000000 : 8=FIX.4.2|9=66|35=5|34=2|49=SacombankFDC|52=20230111-04:27:57.000|56=CQG_Gateway|10=055|
20230111-04:28:56.000000000 : 8=FIX.4.2|9=117|35=A|34=1|49=SacombankFDC|52=20230111-04:28:56.000|56=CQG_Gateway|50=TestFIXSessionPersist|96=pass|98=0|108=60|141=Y|10=020|
20230111-04:28:56.000000000 : 8=FIX.4.2|9=167|35=5|49=CQG_Gateway|56=SacombankFDC|34=1|57=TestFIXSessionPersist|52=20230111-04:28:57.144|20173=20230111-04:28:57.144865|58=Your logon is disabled. Contact your FCM.|10=149|
20230111-04:28:56.000000000 : 8=FIX.4.2|9=66|35=5|34=2|49=SacombankFDC|52=20230111-04:28:56.000|56=CQG_Gateway|10=055|
20230111-04:29:56.000000000 : 8=FIX.4.2|9=117|35=A|34=1|49=SacombankFDC|52=20230111-04:29:56.000|56=CQG_Gateway|50=TestFIXSessionPersist|96=pass|98=0|108=60|141=Y|10=021|
20230111-04:29:56.000000000 : 8=FIX.4.2|9=167|35=5|49=CQG_Gateway|56=SacombankFDC|34=1|57=TestFIXSessionPersist|52=20230111-04:29:56.827|20173=20230111-04:29:56.827018|58=Your logon is disabled. Contact your FCM.|10=155|
20230111-04:29:56.000000000 : 8=FIX.4.2|9=66|35=5|34=2|49=SacombankFDC|52=20230111-04:29:56.000|56=CQG_Gateway|10=056|
20230111-04:30:57.000000000 : 8=FIX.4.2|9=117|35=A|34=1|49=SacombankFDC|52=20230111-04:30:57.000|56=CQG_Gateway|50=TestFIXSessionPersist|96=pass|98=0|108=60|141=Y|10=014|
20230111-04:30:57.000000000 : 8=FIX.4.2|9=167|35=5|49=CQG_Gateway|56=SacombankFDC|34=1|57=TestFIXSessionPersist|52=20230111-04:30:57.495|20173=20230111-04:30:57.495513|58=Your logon is disabled. Contact your FCM.|10=143|
20230111-04:30:57.000000000 : 8=FIX.4.2|9=66|35=5|34=2|49=SacombankFDC|52=20230111-04:30:57.000|56=CQG_Gateway|10=049|
20230111-04:31:56.000000000 : 8=FIX.4.2|9=117|35=A|34=1|49=SacombankFDC|52=20230111-04:31:56.000|56=CQG_Gateway|50=TestFIXSessionPersist|96=pass|98=0|108=60|141=Y|10=014|
20230111-04:31:57.000000000 : 8=FIX.4.2|9=167|35=5|49=CQG_Gateway|56=SacombankFDC|34=1|57=TestFIXSessionPersist|52=20230111-04:31:57.134|20173=20230111-04:31:57.134414|58=Your logon is disabled. Contact your FCM.|10=125|
20230111-04:31:57.000000000 : 8=FIX.4.2|9=66|35=5|34=2|49=SacombankFDC|52=20230111-04:31:57.000|56=CQG_Gateway|10=050|
20230111-04:32:56.000000000 : 8=FIX.4.2|9=117|35=A|34=1|49=SacombankFDC|52=20230111-04:32:56.000|56=CQG_Gateway|50=TestFIXSessionPersist|96=pass|98=0|108=60|141=Y|10=015|
20230111-04:32:56.000000000 : 8=FIX.4.2|9=167|35=5|49=CQG_Gateway|56=SacombankFDC|34=1|57=TestFIXSessionPersist|52=20230111-04:32:56.725|20173=20230111-04:32:56.725668|58=Your logon is disabled. Contact your FCM.|10=148|
20230111-04:32:56.000000000 : 8=FIX.4.2|9=66|35=5|34=2|49=SacombankFDC|52=20230111-04:32:56.000|56=CQG_Gateway|10=050|
20230111-04:33:56.000000000 : 8=FIX.4.2|9=117|35=A|34=1|49=SacombankFDC|52=20230111-04:33:56.000|56=CQG_Gateway|50=TestFIXSessionPersist|96=pass|98=0|108=60|141=Y|10=016|
20230111-04:33:57.000000000 : 8=FIX.4.2|9=167|35=5|49=CQG_Gateway|56=SacombankFDC|34=1|57=TestFIXSessionPersist|52=20230111-04:33:57.330|20173=20230111-04:33:57.330929|58=Your logon is disabled. Contact your FCM.|10=136|
20230111-04:33:57.000000000 : 8=FIX.4.2|9=66|35=5|34=2|49=SacombankFDC|52=20230111-04:33:57.000|56=CQG_Gateway|10=052|
20230111-04:34:56.000000000 : 8=FIX.4.2|9=117|35=A|34=1|49=SacombankFDC|52=20230111-04:34:56.000|56=CQG_Gateway|50=TestFIXSessionPersist|96=pass|98=0|108=60|141=Y|10=017|
20230111-04:34:57.000000000 : 8=FIX.4.2|9=167|35=5|49=CQG_Gateway|56=SacombankFDC|34=1|57=TestFIXSessionPersist|52=20230111-04:34:57.204|20173=20230111-04:34:57.204180|58=Your logon is disabled. Contact your FCM.|10=127|
20230111-04:34:57.000000000 : 8=FIX.4.2|9=66|35=5|34=2|49=SacombankFDC|52=20230111-04:34:57.000|56=CQG_Gateway|10=053|
20230111-04:35:56.000000000 : 8=FIX.4.2|9=117|35=A|34=1|49=SacombankFDC|52=20230111-04:35:56.000|56=CQG_Gateway|50=TestFIXSessionPersist|96=pass|98=0|108=60|141=Y|10=018|
20230111-04:35:56.000000000 : 8=FIX.4.2|9=167|35=5|49=CQG_Gateway|56=SacombankFDC|34=1|57=TestFIXSessionPersist|52=20230111-04:35:56.937|20173=20230111-04:35:56.937017|58=Your logon is disabled. Contact your FCM.|10=152|
20230111-04:35:56.000000000 : 8=FIX.4.2|9=66|35=5|34=2|49=SacombankFDC|52=20230111-04:35:56.000|56=CQG_Gateway|10=053|
20230111-04:36:57.000000000 : 8=FIX.4.2|9=117|35=A|34=1|49=SacombankFDC|52=20230111-04:36:57.000|56=CQG_Gateway|50=TestFIXSessionPersist|96=pass|98=0|108=60|141=Y|10=020|
20230111-04:36:57.000000000 : 8=FIX.4.2|9=167|35=5|49=CQG_Gateway|56=SacombankFDC|34=1|57=TestFIXSessionPersist|52=20230111-04:36:57.509|20173=20230111-04:36:57.509674|58=Your logon is disabled. Contact your FCM.|10=155|
20230111-04:36:57.000000000 : 8=FIX.4.2|9=66|35=5|34=2|49=SacombankFDC|52=20230111-04:36:57.000|56=CQG_Gateway|10=055|
20230111-04:37:56.000000000 : 8=FIX.4.2|9=117|35=A|34=1|49=SacombankFDC|52=20230111-04:37:56.000|56=CQG_Gateway|50=TestFIXSessionPersist|96=pass|98=0|108=60|141=Y|10=020|
20230111-04:37:56.000000000 : 8=FIX.4.2|9=167|35=5|49=CQG_Gateway|56=SacombankFDC|34=1|57=TestFIXSessionPersist|52=20230111-04:37:57.115|20173=20230111-04:37:57.115575|58=Your logon is disabled. Contact your FCM.|10=143|
20230111-04:37:56.000000000 : 8=FIX.4.2|9=66|35=5|34=2|49=SacombankFDC|52=20230111-04:37:56.000|56=CQG_Gateway|10=055|
20230111-04:38:56.000000000 : 8=FIX.4.2|9=117|35=A|34=1|49=SacombankFDC|52=20230111-04:38:56.000|56=CQG_Gateway|50=TestFIXSessionPersist|96=pass|98=0|108=60|141=Y|10=021|
20230111-04:38:56.000000000 : 8=FIX.4.2|9=167|35=5|49=CQG_Gateway|56=SacombankFDC|34=1|57=TestFIXSessionPersist|52=20230111-04:38:56.743|20173=20230111-04:38:56.743927|58=Your logon is disabled. Contact your FCM.|10=158|
20230111-04:38:56.000000000 : 8=FIX.4.2|9=66|35=5|34=2|49=SacombankFDC|52=20230111-04:38:56.000|56=CQG_Gateway|10=056|
20230111-06:07:42.000000000 : 8=FIX.4.2|9=117|35=A|34=1|49=SacombankFDC|52=20230111-06:07:42.000|56=CQG_Gateway|50=TestFIXSessionPersist|96=pass|98=0|108=60|141=Y|10=014|
20230111-06:07:42.000000000 : 8=FIX.4.2|9=167|35=5|49=CQG_Gateway|56=SacombankFDC|34=1|57=TestFIXSessionPersist|52=20230111-06:07:42.483|20173=20230111-06:07:42.483366|58=Your logon is disabled. Contact your FCM.|10=143|
20230111-06:07:42.000000000 : 8=FIX.4.2|9=66|35=5|34=2|49=SacombankFDC|52=20230111-06:07:42.000|56=CQG_Gateway|10=049|
20230111-06:08:42.000000000 : 8=FIX.4.2|9=117|35=A|34=1|49=SacombankFDC|52=20230111-06:08:42.000|56=CQG_Gateway|50=TestFIXSessionPersist|96=pass|98=0|108=60|141=Y|10=015|
20230111-06:08:42.000000000 : 8=FIX.4.2|9=167|35=5|49=CQG_Gateway|56=SacombankFDC|34=1|57=TestFIXSessionPersist|52=20230111-06:08:43.053|20173=20230111-06:08:43.053386|58=Your logon is disabled. Contact your FCM.|10=135|
20230111-06:08:42.000000000 : 8=FIX.4.2|9=66|35=5|34=2|49=SacombankFDC|52=20230111-06:08:42.000|56=CQG_Gateway|10=050|
20230111-06:09:42.000000000 : 8=FIX.4.2|9=117|35=A|34=1|49=SacombankFDC|52=20230111-06:09:42.000|56=CQG_Gateway|50=TestFIXSessionPersist|96=pass|98=0|108=60|141=Y|10=016|
20230111-06:09:42.000000000 : 8=FIX.4.2|9=167|35=5|49=CQG_Gateway|56=SacombankFDC|34=1|57=TestFIXSessionPersist|52=20230111-06:09:42.612|20173=20230111-06:09:42.612979|58=Your logon is disabled. Contact your FCM.|10=145|
20230111-06:09:42.000000000 : 8=FIX.4.2|9=66|35=5|34=2|49=SacombankFDC|52=20230111-06:09:42.000|56=CQG_Gateway|10=051|
20230111-06:10:42.000000000 : 8=FIX.4.2|9=117|35=A|34=1|49=SacombankFDC|52=20230111-06:10:42.000|56=CQG_Gateway|50=TestFIXSessionPersist|96=pass|98=0|108=60|141=Y|10=008|
20230111-06:10:43.000000000 : 8=FIX.4.2|9=167|35=5|49=CQG_Gateway|56=SacombankFDC|34=1|57=TestFIXSessionPersist|52=20230111-06:10:43.232|20173=20230111-06:10:43.232578|58=Your logon is disabled. Contact your FCM.|10=122|
20230111-06:10:43.000000000 : 8=FIX.4.2|9=66|35=5|34=2|49=SacombankFDC|52=20230111-06:10:43.000|56=CQG_Gateway|10=044|
20230111-06:11:42.000000000 : 8=FIX.4.2|9=117|35=A|34=1|49=SacombankFDC|52=20230111-06:11:42.000|56=CQG_Gateway|50=TestFIXSessionPersist|96=pass|98=0|108=60|141=Y|10=009|
20230111-06:11:42.000000000 : 8=FIX.4.2|9=167|35=5|49=CQG_Gateway|56=SacombankFDC|34=1|57=TestFIXSessionPersist|52=20230111-06:11:42.879|20173=20230111-06:11:42.879954|58=Your logon is disabled. Contact your FCM.|10=154|
20230111-06:11:42.000000000 : 8=FIX.4.2|9=66|35=5|34=2|49=SacombankFDC|52=20230111-06:11:42.000|56=CQG_Gateway|10=044|
20230111-06:12:43.000000000 : 8=FIX.4.2|9=117|35=A|34=1|49=SacombankFDC|52=20230111-06:12:43.000|56=CQG_Gateway|50=TestFIXSessionPersist|96=pass|98=0|108=60|141=Y|10=011|
20230111-06:12:43.000000000 : 8=FIX.4.2|9=167|35=5|49=CQG_Gateway|56=SacombankFDC|34=1|57=TestFIXSessionPersist|52=20230111-06:12:43.735|20173=20230111-06:12:43.735424|58=Your logon is disabled. Contact your FCM.|10=132|
20230111-06:12:43.000000000 : 8=FIX.4.2|9=66|35=5|34=2|49=SacombankFDC|52=20230111-06:12:43.000|56=CQG_Gateway|10=046|
20230111-06:13:43.000000000 : 8=FIX.4.2|9=117|35=A|34=1|49=SacombankFDC|52=20230111-06:13:43.000|56=CQG_Gateway|50=TestFIXSessionPersist|96=pass|98=0|108=60|141=Y|10=012|
20230111-06:13:43.000000000 : 8=FIX.4.2|9=167|35=5|49=CQG_Gateway|56=SacombankFDC|34=1|57=TestFIXSessionPersist|52=20230111-06:13:43.354|20173=20230111-06:13:43.354152|58=Your logon is disabled. Contact your FCM.|10=126|
20230111-06:13:43.000000000 : 8=FIX.4.2|9=66|35=5|34=2|49=SacombankFDC|52=20230111-06:13:43.000|56=CQG_Gateway|10=047|
20230111-06:14:42.000000000 : 8=FIX.4.2|9=117|35=A|34=1|49=SacombankFDC|52=20230111-06:14:42.000|56=CQG_Gateway|50=TestFIXSessionPersist|96=pass|98=0|108=60|141=Y|10=012|
20230111-06:14:42.000000000 : 8=FIX.4.2|9=167|35=5|49=CQG_Gateway|56=SacombankFDC|34=1|57=TestFIXSessionPersist|52=20230111-06:14:42.858|20173=20230111-06:14:42.858642|58=Your logon is disabled. Contact your FCM.|10=148|
20230111-06:14:42.000000000 : 8=FIX.4.2|9=66|35=5|34=2|49=SacombankFDC|52=20230111-06:14:42.000|56=CQG_Gateway|10=047|
20230111-06:15:43.000000000 : 8=FIX.4.2|9=117|35=A|34=1|49=SacombankFDC|52=20230111-06:15:43.000|56=CQG_Gateway|50=TestFIXSessionPersist|96=pass|98=0|108=60|141=Y|10=014|
20230111-06:15:43.000000000 : 8=FIX.4.2|9=167|35=5|49=CQG_Gateway|56=SacombankFDC|34=1|57=TestFIXSessionPersist|52=20230111-06:15:43.462|20173=20230111-06:15:43.462153|58=Your logon is disabled. Contact your FCM.|10=131|
20230111-06:15:43.000000000 : 8=FIX.4.2|9=66|35=5|34=2|49=SacombankFDC|52=20230111-06:15:43.000|56=CQG_Gateway|10=049|
20230111-06:16:42.000000000 : 8=FIX.4.2|9=117|35=A|34=1|49=SacombankFDC|52=20230111-06:16:42.000|56=CQG_Gateway|50=TestFIXSessionPersist|96=pass|98=0|108=60|141=Y|10=014|
20230111-06:16:43.000000000 : 8=FIX.4.2|9=167|35=5|49=CQG_Gateway|56=SacombankFDC|34=1|57=TestFIXSessionPersist|52=20230111-06:16:43.081|20173=20230111-06:16:43.081312|58=Your logon is disabled. Contact your FCM.|10=124|
20230111-06:16:43.000000000 : 8=FIX.4.2|9=66|35=5|34=2|49=SacombankFDC|52=20230111-06:16:43.000|56=CQG_Gateway|10=050|
20230111-06:17:42.000000000 : 8=FIX.4.2|9=117|35=A|34=1|49=SacombankFDC|52=20230111-06:17:42.000|56=CQG_Gateway|50=TestFIXSessionPersist|96=pass|98=0|108=60|141=Y|10=015|
20230111-06:17:42.000000000 : 8=FIX.4.2|9=167|35=5|49=CQG_Gateway|56=SacombankFDC|34=1|57=TestFIXSessionPersist|52=20230111-06:17:42.601|20173=20230111-06:17:42.601845|58=Your logon is disabled. Contact your FCM.|10=131|
20230111-06:17:42.000000000 : 8=FIX.4.2|9=66|35=5|34=2|49=SacombankFDC|52=20230111-06:17:42.000|56=CQG_Gateway|10=050|
20230111-06:18:43.000000000 : 8=FIX.4.2|9=117|35=A|34=1|49=SacombankFDC|52=20230111-06:18:43.000|56=CQG_Gateway|50=TestFIXSessionPersist|96=pass|98=0|108=60|141=Y|10=017|
20230111-06:18:43.000000000 : 8=FIX.4.2|9=167|35=5|49=CQG_Gateway|56=SacombankFDC|34=1|57=TestFIXSessionPersist|52=20230111-06:18:43.572|20173=20230111-06:18:43.572990|58=Your logon is disabled. Contact your FCM.|10=150|
20230111-06:18:43.000000000 : 8=FIX.4.2|9=66|35=5|34=2|49=SacombankFDC|52=20230111-06:18:43.000|56=CQG_Gateway|10=052|
20230111-06:19:45.000000000 : 8=FIX.4.2|9=117|35=A|34=1|49=SacombankFDC|52=20230111-06:19:45.000|56=CQG_Gateway|50=TestFIXSessionPersist|96=pass|98=0|108=60|141=Y|10=020|
20230111-06:19:46.000000000 : 8=FIX.4.2|9=167|35=5|49=CQG_Gateway|56=SacombankFDC|34=1|57=TestFIXSessionPersist|52=20230111-06:19:46.175|20173=20230111-06:19:46.175554|58=Your logon is disabled. Contact your FCM.|10=152|
20230111-06:19:46.000000000 : 8=FIX.4.2|9=66|35=5|34=2|49=SacombankFDC|52=20230111-06:19:46.000|56=CQG_Gateway|10=056|
20230111-06:20:42.000000000 : 8=FIX.4.2|9=117|35=A|34=1|49=SacombankFDC|52=20230111-06:20:42.000|56=CQG_Gateway|50=TestFIXSessionPersist|96=pass|98=0|108=60|141=Y|10=009|
20230111-06:20:42.000000000 : 8=FIX.4.2|9=167|35=5|49=CQG_Gateway|56=SacombankFDC|34=1|57=TestFIXSessionPersist|52=20230111-06:20:42.803|20173=20230111-06:20:42.803870|58=Your logon is disabled. Contact your FCM.|10=125|
20230111-06:20:42.000000000 : 8=FIX.4.2|9=66|35=5|34=2|49=SacombankFDC|52=20230111-06:20:42.000|56=CQG_Gateway|10=044|
20230111-06:21:43.000000000 : 8=FIX.4.2|9=117|35=A|34=1|49=SacombankFDC|52=20230111-06:21:43.000|56=CQG_Gateway|50=TestFIXSessionPersist|96=pass|98=0|108=60|141=Y|10=011|
20230111-06:21:43.000000000 : 8=FIX.4.2|9=167|35=5|49=CQG_Gateway|56=SacombankFDC|34=1|57=TestFIXSessionPersist|52=20230111-06:21:43.332|20173=20230111-06:21:43.332514|58=Your logon is disabled. Contact your FCM.|10=118|
20230111-06:21:43.000000000 : 8=FIX.4.2|9=66|35=5|34=2|49=SacombankFDC|52=20230111-06:21:43.000|56=CQG_Gateway|10=046|
20230111-06:22:42.000000000 : 8=FIX.4.2|9=117|35=A|34=1|49=SacombankFDC|52=20230111-06:22:42.000|56=CQG_Gateway|50=TestFIXSessionPersist|96=pass|98=0|108=60|141=Y|10=011|
20230111-06:22:42.000000000 : 8=FIX.4.2|9=167|35=5|49=CQG_Gateway|56=SacombankFDC|34=1|57=TestFIXSessionPersist|52=20230111-06:22:42.911|20173=20230111-06:22:42.911683|58=Your logon is disabled. Contact your FCM.|10=131|
20230111-06:22:42.000000000 : 8=FIX.4.2|9=66|35=5|34=2|49=SacombankFDC|52=20230111-06:22:42.000|56=CQG_Gateway|10=046|
20230111-06:23:43.000000000 : 8=FIX.4.2|9=117|35=A|34=1|49=SacombankFDC|52=20230111-06:23:43.000|56=CQG_Gateway|50=TestFIXSessionPersist|96=pass|98=0|108=60|141=Y|10=013|
20230111-06:23:43.000000000 : 8=FIX.4.2|9=167|35=5|49=CQG_Gateway|56=SacombankFDC|34=1|57=TestFIXSessionPersist|52=20230111-06:23:43.486|20173=20230111-06:23:43.486391|58=Your logon is disabled. Contact your FCM.|10=145|
20230111-06:23:43.000000000 : 8=FIX.4.2|9=66|35=5|34=2|49=SacombankFDC|52=20230111-06:23:43.000|56=CQG_Gateway|10=048|
20230111-06:24:42.000000000 : 8=FIX.4.2|9=117|35=A|34=1|49=SacombankFDC|52=20230111-06:24:42.000|56=CQG_Gateway|50=TestFIXSessionPersist|96=pass|98=0|108=60|141=Y|10=013|
20230111-06:24:43.000000000 : 8=FIX.4.2|9=167|35=5|49=CQG_Gateway|56=SacombankFDC|34=1|57=TestFIXSessionPersist|52=20230111-06:24:43.319|20173=20230111-06:24:43.319305|58=Your logon is disabled. Contact your FCM.|10=132|
20230111-06:24:43.000000000 : 8=FIX.4.2|9=66|35=5|34=2|49=SacombankFDC|52=20230111-06:24:43.000|56=CQG_Gateway|10=049|
20230111-06:25:42.000000000 : 8=FIX.4.2|9=117|35=A|34=1|49=SacombankFDC|52=20230111-06:25:42.000|56=CQG_Gateway|50=TestFIXSessionPersist|96=pass|98=0|108=60|141=Y|10=014|
20230111-06:25:42.000000000 : 8=FIX.4.2|9=167|35=5|49=CQG_Gateway|56=SacombankFDC|34=1|57=TestFIXSessionPersist|52=20230111-06:25:42.945|20173=20230111-06:25:42.945898|58=Your logon is disabled. Contact your FCM.|10=159|
20230111-06:25:42.000000000 : 8=FIX.4.2|9=66|35=5|34=2|49=SacombankFDC|52=20230111-06:25:42.000|56=CQG_Gateway|10=049|
20230111-06:26:43.000000000 : 8=FIX.4.2|9=117|35=A|34=1|49=SacombankFDC|52=20230111-06:26:43.000|56=CQG_Gateway|50=TestFIXSessionPersist|96=pass|98=0|108=60|141=Y|10=016|
20230111-06:26:43.000000000 : 8=FIX.4.2|9=167|35=5|49=CQG_Gateway|56=SacombankFDC|34=1|57=TestFIXSessionPersist|52=20230111-06:26:43.480|20173=20230111-06:26:43.480596|58=Your logon is disabled. Contact your FCM.|10=146|
20230111-06:26:43.000000000 : 8=FIX.4.2|9=66|35=5|34=2|49=SacombankFDC|52=20230111-06:26:43.000|56=CQG_Gateway|10=051|
20230111-06:27:42.000000000 : 8=FIX.4.2|9=117|35=A|34=1|49=SacombankFDC|52=20230111-06:27:42.000|56=CQG_Gateway|50=TestFIXSessionPersist|96=pass|98=0|108=60|141=Y|10=016|
20230111-06:27:42.000000000 : 8=FIX.4.2|9=167|35=5|49=CQG_Gateway|56=SacombankFDC|34=1|57=TestFIXSessionPersist|52=20230111-06:27:43.039|20173=20230111-06:27:43.039347|58=Your logon is disabled. Contact your FCM.|10=142|
20230111-06:27:42.000000000 : 8=FIX.4.2|9=66|35=5|34=2|49=SacombankFDC|52=20230111-06:27:42.000|56=CQG_Gateway|10=051|
20230111-06:28:42.000000000 : 8=FIX.4.2|9=117|35=A|34=1|49=SacombankFDC|52=20230111-06:28:42.000|56=CQG_Gateway|50=TestFIXSessionPersist|96=pass|98=0|108=60|141=Y|10=017|
20230111-06:28:42.000000000 : 8=FIX.4.2|9=167|35=5|49=CQG_Gateway|56=SacombankFDC|34=1|57=TestFIXSessionPersist|52=20230111-06:28:42.676|20173=20230111-06:28:42.676897|58=Your logon is disabled. Contact your FCM.|10=166|
20230111-06:28:42.000000000 : 8=FIX.4.2|9=66|35=5|34=2|49=SacombankFDC|52=20230111-06:28:42.000|56=CQG_Gateway|10=052|
20230111-06:29:42.000000000 : 8=FIX.4.2|9=117|35=A|34=1|49=SacombankFDC|52=20230111-06:29:42.000|56=CQG_Gateway|50=TestFIXSessionPersist|96=pass|98=0|108=60|141=Y|10=018|
20230111-06:29:43.000000000 : 8=FIX.4.2|9=167|35=5|49=CQG_Gateway|56=SacombankFDC|34=1|57=TestFIXSessionPersist|52=20230111-06:29:43.181|20173=20230111-06:29:43.181871|58=Your logon is disabled. Contact your FCM.|10=144|
20230111-06:29:43.000000000 : 8=FIX.4.2|9=66|35=5|34=2|49=SacombankFDC|52=20230111-06:29:43.000|56=CQG_Gateway|10=054|
20230111-06:30:42.000000000 : 8=FIX.4.2|9=117|35=A|34=1|49=SacombankFDC|52=20230111-06:30:42.000|56=CQG_Gateway|50=TestFIXSessionPersist|96=pass|98=0|108=60|141=Y|10=010|
20230111-06:30:42.000000000 : 8=FIX.4.2|9=167|35=5|49=CQG_Gateway|56=SacombankFDC|34=1|57=TestFIXSessionPersist|52=20230111-06:30:42.979|20173=20230111-06:30:42.979042|58=Your logon is disabled. Contact your FCM.|10=146|
20230111-06:30:42.000000000 : 8=FIX.4.2|9=66|35=5|34=2|49=SacombankFDC|52=20230111-06:30:42.000|56=CQG_Gateway|10=045|
20230111-06:31:43.000000000 : 8=FIX.4.2|9=117|35=A|34=1|49=SacombankFDC|52=20230111-06:31:43.000|56=CQG_Gateway|50=TestFIXSessionPersist|96=pass|98=0|108=60|141=Y|10=012|
20230111-06:31:43.000000000 : 8=FIX.4.2|9=167|35=5|49=CQG_Gateway|56=SacombankFDC|34=1|57=TestFIXSessionPersist|52=20230111-06:31:43.510|20173=20230111-06:31:43.510503|58=Your logon is disabled. Contact your FCM.|10=114|
20230111-06:31:43.000000000 : 8=FIX.4.2|9=66|35=5|34=2|49=SacombankFDC|52=20230111-06:31:43.000|56=CQG_Gateway|10=047|
20230111-06:32:42.000000000 : 8=FIX.4.2|9=117|35=A|34=1|49=SacombankFDC|52=20230111-06:32:42.000|56=CQG_Gateway|50=TestFIXSessionPersist|96=pass|98=0|108=60|141=Y|10=012|
20230111-06:32:43.000000000 : 8=FIX.4.2|9=167|35=5|49=CQG_Gateway|56=SacombankFDC|34=1|57=TestFIXSessionPersist|52=20230111-06:32:43.140|20173=20230111-06:32:43.140644|58=Your logon is disabled. Contact your FCM.|10=120|
20230111-06:32:43.000000000 : 8=FIX.4.2|9=66|35=5|34=2|49=SacombankFDC|52=20230111-06:32:43.000|56=CQG_Gateway|10=048|
20230111-06:33:42.000000000 : 8=FIX.4.2|9=117|35=A|34=1|49=SacombankFDC|52=20230111-06:33:42.000|56=CQG_Gateway|50=TestFIXSessionPersist|96=pass|98=0|108=60|141=Y|10=013|
20230111-06:33:42.000000000 : 8=FIX.4.2|9=167|35=5|49=CQG_Gateway|56=SacombankFDC|34=1|57=TestFIXSessionPersist|52=20230111-06:33:42.644|20173=20230111-06:33:42.644990|58=Your logon is disabled. Contact your FCM.|10=142|
20230111-06:33:42.000000000 : 8=FIX.4.2|9=66|35=5|34=2|49=SacombankFDC|52=20230111-06:33:42.000|56=CQG_Gateway|10=048|
20230111-06:34:42.000000000 : 8=FIX.4.2|9=117|35=A|34=1|49=SacombankFDC|52=20230111-06:34:42.000|56=CQG_Gateway|50=TestFIXSessionPersist|96=pass|98=0|108=60|141=Y|10=014|
20230111-06:34:43.000000000 : 8=FIX.4.2|9=167|35=5|49=CQG_Gateway|56=SacombankFDC|34=1|57=TestFIXSessionPersist|52=20230111-06:34:43.298|20173=20230111-06:34:43.298306|58=Your logon is disabled. Contact your FCM.|10=147|
20230111-06:34:43.000000000 : 8=FIX.4.2|9=66|35=5|34=2|49=SacombankFDC|52=20230111-06:34:43.000|56=CQG_Gateway|10=050|
20230111-06:35:42.000000000 : 8=FIX.4.2|9=117|35=A|34=1|49=SacombankFDC|52=20230111-06:35:42.000|56=CQG_Gateway|50=TestFIXSessionPersist|96=pass|98=0|108=60|141=Y|10=015|
20230111-06:35:43.000000000 : 8=FIX.4.2|9=167|35=5|49=CQG_Gateway|56=SacombankFDC|34=1|57=TestFIXSessionPersist|52=20230111-06:35:42.866|20173=20230111-06:35:42.866052|58=Your logon is disabled. Contact your FCM.|10=147|
20230111-06:35:43.000000000 : 8=FIX.4.2|9=66|35=5|34=2|49=SacombankFDC|52=20230111-06:35:43.000|56=CQG_Gateway|10=051|
20230111-06:36:43.000000000 : 8=FIX.4.2|9=117|35=A|34=1|49=SacombankFDC|52=20230111-06:36:43.000|56=CQG_Gateway|50=TestFIXSessionPersist|96=pass|98=0|108=60|141=Y|10=017|
20230111-06:36:43.000000000 : 8=FIX.4.2|9=167|35=5|49=CQG_Gateway|56=SacombankFDC|34=1|57=TestFIXSessionPersist|52=20230111-06:36:43.799|20173=20230111-06:36:43.799685|58=Your logon is disabled. Contact your FCM.|10=173|
20230111-06:36:43.000000000 : 8=FIX.4.2|9=66|35=5|34=2|49=SacombankFDC|52=20230111-06:36:43.000|56=CQG_Gateway|10=052|
20230111-06:37:43.000000000 : 8=FIX.4.2|9=117|35=A|34=1|49=SacombankFDC|52=20230111-06:37:43.000|56=CQG_Gateway|50=TestFIXSessionPersist|96=pass|98=0|108=60|141=Y|10=018|
20230111-06:37:44.000000000 : 8=FIX.4.2|9=167|35=5|49=CQG_Gateway|56=SacombankFDC|34=1|57=TestFIXSessionPersist|52=20230111-06:37:43.422|20173=20230111-06:37:43.422179|58=Your logon is disabled. Contact your FCM.|10=139|
20230111-06:37:44.000000000 : 8=FIX.4.2|9=66|35=5|34=2|49=SacombankFDC|52=20230111-06:37:44.000|56=CQG_Gateway|10=054|
20230111-06:38:42.000000000 : 8=FIX.4.2|9=117|35=A|34=1|49=SacombankFDC|52=20230111-06:38:42.000|56=CQG_Gateway|50=TestFIXSessionPersist|96=pass|98=0|108=60|141=Y|10=018|
20230111-06:38:42.000000000 : 8=FIX.4.2|9=167|35=5|49=CQG_Gateway|56=SacombankFDC|34=1|57=TestFIXSessionPersist|52=20230111-06:38:43.054|20173=20230111-06:38:43.054855|58=Your logon is disabled. Contact your FCM.|10=144|
20230111-06:38:42.000000000 : 8=FIX.4.2|9=66|35=5|34=2|49=SacombankFDC|52=20230111-06:38:42.000|56=CQG_Gateway|10=053|
20230111-06:39:42.000000000 : 8=FIX.4.2|9=117|35=A|34=1|49=SacombankFDC|52=20230111-06:39:42.000|56=CQG_Gateway|50=TestFIXSessionPersist|96=pass|98=0|108=60|141=Y|10=019|
20230111-06:39:42.000000000 : 8=FIX.4.2|9=167|35=5|49=CQG_Gateway|56=SacombankFDC|34=1|57=TestFIXSessionPersist|52=20230111-06:39:42.582|20173=20230111-06:39:42.582524|58=Your logon is disabled. Contact your FCM.|10=149|
20230111-06:39:42.000000000 : 8=FIX.4.2|9=66|35=5|34=2|49=SacombankFDC|52=20230111-06:39:42.000|56=CQG_Gateway|10=054|
20230111-06:40:42.000000000 : 8=FIX.4.2|9=117|35=A|34=1|49=SacombankFDC|52=20230111-06:40:42.000|56=CQG_Gateway|50=TestFIXSessionPersist|96=pass|98=0|108=60|141=Y|10=011|
20230111-06:40:43.000000000 : 8=FIX.4.2|9=167|35=5|49=CQG_Gateway|56=SacombankFDC|34=1|57=TestFIXSessionPersist|52=20230111-06:40:43.154|20173=20230111-06:40:43.154866|58=Your logon is disabled. Contact your FCM.|10=134|
20230111-06:40:43.000000000 : 8=FIX.4.2|9=66|35=5|34=2|49=SacombankFDC|52=20230111-06:40:43.000|56=CQG_Gateway|10=047|
20230111-06:41:42.000000000 : 8=FIX.4.2|9=117|35=A|34=1|49=SacombankFDC|52=20230111-06:41:42.000|56=CQG_Gateway|50=TestFIXSessionPersist|96=pass|98=0|108=60|141=Y|10=012|
20230111-06:41:42.000000000 : 8=FIX.4.2|9=167|35=5|49=CQG_Gateway|56=SacombankFDC|34=1|57=TestFIXSessionPersist|52=20230111-06:41:42.769|20173=20230111-06:41:42.769021|58=Your logon is disabled. Contact your FCM.|10=141|
20230111-06:41:42.000000000 : 8=FIX.4.2|9=66|35=5|34=2|49=SacombankFDC|52=20230111-06:41:42.000|56=CQG_Gateway|10=047|
20230111-06:42:43.000000000 : 8=FIX.4.2|9=117|35=A|34=1|49=SacombankFDC|52=20230111-06:42:43.000|56=CQG_Gateway|50=TestFIXSessionPersist|96=pass|98=0|108=60|141=Y|10=014|
20230111-06:42:43.000000000 : 8=FIX.4.2|9=167|35=5|49=CQG_Gateway|56=SacombankFDC|34=1|57=TestFIXSessionPersist|52=20230111-06:42:43.632|20173=20230111-06:42:43.632378|58=Your logon is disabled. Contact your FCM.|10=138|
20230111-06:42:43.000000000 : 8=FIX.4.2|9=66|35=5|34=2|49=SacombankFDC|52=20230111-06:42:43.000|56=CQG_Gateway|10=049|
20230111-06:43:42.000000000 : 8=FIX.4.2|9=117|35=A|34=1|49=SacombankFDC|52=20230111-06:43:42.000|56=CQG_Gateway|50=TestFIXSessionPersist|96=pass|98=0|108=60|141=Y|10=014|
20230111-06:43:43.000000000 : 8=FIX.4.2|9=167|35=5|49=CQG_Gateway|56=SacombankFDC|34=1|57=TestFIXSessionPersist|52=20230111-06:43:43.181|20173=20230111-06:43:43.181780|58=Your logon is disabled. Contact your FCM.|10=135|
20230111-06:43:43.000000000 : 8=FIX.4.2|9=66|35=5|34=2|49=SacombankFDC|52=20230111-06:43:43.000|56=CQG_Gateway|10=050|
20230111-06:44:42.000000000 : 8=FIX.4.2|9=117|35=A|34=1|49=SacombankFDC|52=20230111-06:44:42.000|56=CQG_Gateway|50=TestFIXSessionPersist|96=pass|98=0|108=60|141=Y|10=015|
20230111-06:44:42.000000000 : 8=FIX.4.2|9=167|35=5|49=CQG_Gateway|56=SacombankFDC|34=1|57=TestFIXSessionPersist|52=20230111-06:44:42.782|20173=20230111-06:44:42.782511|58=Your logon is disabled. Contact your FCM.|10=141|
20230111-06:44:42.000000000 : 8=FIX.4.2|9=66|35=5|34=2|49=SacombankFDC|52=20230111-06:44:42.000|56=CQG_Gateway|10=050|
20230111-06:45:43.000000000 : 8=FIX.4.2|9=117|35=A|34=1|49=SacombankFDC|52=20230111-06:45:43.000|56=CQG_Gateway|50=TestFIXSessionPersist|96=pass|98=0|108=60|141=Y|10=017|
20230111-06:45:43.000000000 : 8=FIX.4.2|9=167|35=5|49=CQG_Gateway|56=SacombankFDC|34=1|57=TestFIXSessionPersist|52=20230111-06:45:43.388|20173=20230111-06:45:43.388462|58=Your logon is disabled. Contact your FCM.|10=154|
20230111-06:45:43.000000000 : 8=FIX.4.2|9=66|35=5|34=2|49=SacombankFDC|52=20230111-06:45:43.000|56=CQG_Gateway|10=052|
20230111-06:46:42.000000000 : 8=FIX.4.2|9=117|35=A|34=1|49=SacombankFDC|52=20230111-06:46:42.000|56=CQG_Gateway|50=TestFIXSessionPersist|96=pass|98=0|108=60|141=Y|10=017|
20230111-06:46:43.000000000 : 8=FIX.4.2|9=167|35=5|49=CQG_Gateway|56=SacombankFDC|34=1|57=TestFIXSessionPersist|52=20230111-06:46:42.915|20173=20230111-06:46:42.915776|58=Your logon is disabled. Contact your FCM.|10=154|
20230111-06:46:43.000000000 : 8=FIX.4.2|9=66|35=5|34=2|49=SacombankFDC|52=20230111-06:46:43.000|56=CQG_Gateway|10=053|
20230111-06:47:43.000000000 : 8=FIX.4.2|9=117|35=A|34=1|49=SacombankFDC|52=20230111-06:47:43.000|56=CQG_Gateway|50=TestFIXSessionPersist|96=pass|98=0|108=60|141=Y|10=019|
20230111-06:47:43.000000000 : 8=FIX.4.2|9=167|35=5|49=CQG_Gateway|56=SacombankFDC|34=1|57=TestFIXSessionPersist|52=20230111-06:47:43.499|20173=20230111-06:47:43.499195|58=Your logon is disabled. Contact your FCM.|10=167|
20230111-06:47:43.000000000 : 8=FIX.4.2|9=66|35=5|34=2|49=SacombankFDC|52=20230111-06:47:43.000|56=CQG_Gateway|10=054|
20230111-06:48:42.000000000 : 8=FIX.4.2|9=117|35=A|34=1|49=SacombankFDC|52=20230111-06:48:42.000|56=CQG_Gateway|50=TestFIXSessionPersist|96=pass|98=0|108=60|141=Y|10=019|
20230111-06:48:43.000000000 : 8=FIX.4.2|9=167|35=5|49=CQG_Gateway|56=SacombankFDC|34=1|57=TestFIXSessionPersist|52=20230111-06:48:43.280|20173=20230111-06:48:43.280551|58=Your logon is disabled. Contact your FCM.|10=141|
20230111-06:48:43.000000000 : 8=FIX.4.2|9=66|35=5|34=2|49=SacombankFDC|52=20230111-06:48:43.000|56=CQG_Gateway|10=055|
20230111-06:49:42.000000000 : 8=FIX.4.2|9=117|35=A|34=1|49=SacombankFDC|52=20230111-06:49:42.000|56=CQG_Gateway|50=TestFIXSessionPersist|96=pass|98=0|108=60|141=Y|10=020|
20230111-06:49:42.000000000 : 8=FIX.4.2|9=167|35=5|49=CQG_Gateway|56=SacombankFDC|34=1|57=TestFIXSessionPersist|52=20230111-06:49:42.822|20173=20230111-06:49:42.822149|58=Your logon is disabled. Contact your FCM.|10=148|
20230111-06:49:42.000000000 : 8=FIX.4.2|9=66|35=5|34=2|49=SacombankFDC|52=20230111-06:49:42.000|56=CQG_Gateway|10=055|
20230111-06:50:43.000000000 : 8=FIX.4.2|9=117|35=A|34=1|49=SacombankFDC|52=20230111-06:50:43.000|56=CQG_Gateway|50=TestFIXSessionPersist|96=pass|98=0|108=60|141=Y|10=013|
20230111-06:50:43.000000000 : 8=FIX.4.2|9=167|35=5|49=CQG_Gateway|56=SacombankFDC|34=1|57=TestFIXSessionPersist|52=20230111-06:50:43.359|20173=20230111-06:50:43.359995|58=Your logon is disabled. Contact your FCM.|10=153|
20230111-06:50:43.000000000 : 8=FIX.4.2|9=66|35=5|34=2|49=SacombankFDC|52=20230111-06:50:43.000|56=CQG_Gateway|10=048|
20230111-06:51:42.000000000 : 8=FIX.4.2|9=117|35=A|34=1|49=SacombankFDC|52=20230111-06:51:42.000|56=CQG_Gateway|50=TestFIXSessionPersist|96=pass|98=0|108=60|141=Y|10=013|
20230111-06:51:42.000000000 : 8=FIX.4.2|9=167|35=5|49=CQG_Gateway|56=SacombankFDC|34=1|57=TestFIXSessionPersist|52=20230111-06:51:42.885|20173=20230111-06:51:42.885163|58=Your logon is disabled. Contact your FCM.|10=148|
20230111-06:51:42.000000000 : 8=FIX.4.2|9=66|35=5|34=2|49=SacombankFDC|52=20230111-06:51:42.000|56=CQG_Gateway|10=048|
20230111-06:52:43.000000000 : 8=FIX.4.2|9=117|35=A|34=1|49=SacombankFDC|52=20230111-06:52:43.000|56=CQG_Gateway|50=TestFIXSessionPersist|96=pass|98=0|108=60|141=Y|10=015|
20230111-06:52:43.000000000 : 8=FIX.4.2|9=167|35=5|49=CQG_Gateway|56=SacombankFDC|34=1|57=TestFIXSessionPersist|52=20230111-06:52:43.465|20173=20230111-06:52:43.466005|58=Your logon is disabled. Contact your FCM.|10=136|
20230111-06:52:43.000000000 : 8=FIX.4.2|9=66|35=5|34=2|49=SacombankFDC|52=20230111-06:52:43.000|56=CQG_Gateway|10=050|
20230111-06:53:42.000000000 : 8=FIX.4.2|9=117|35=A|34=1|49=SacombankFDC|52=20230111-06:53:42.000|56=CQG_Gateway|50=TestFIXSessionPersist|96=pass|98=0|108=60|141=Y|10=015|
20230111-06:53:42.000000000 : 8=FIX.4.2|9=167|35=5|49=CQG_Gateway|56=SacombankFDC|34=1|57=TestFIXSessionPersist|52=20230111-06:53:42.990|20173=20230111-06:53:42.990474|58=Your logon is disabled. Contact your FCM.|10=151|
20230111-06:53:42.000000000 : 8=FIX.4.2|9=66|35=5|34=2|49=SacombankFDC|52=20230111-06:53:42.000|56=CQG_Gateway|10=050|
20230111-06:54:43.000000000 : 8=FIX.4.2|9=117|35=A|34=1|49=SacombankFDC|52=20230111-06:54:43.000|56=CQG_Gateway|50=TestFIXSessionPersist|96=pass|98=0|108=60|141=Y|10=017|
20230111-06:54:43.000000000 : 8=FIX.4.2|9=167|35=5|49=CQG_Gateway|56=SacombankFDC|34=1|57=TestFIXSessionPersist|52=20230111-06:54:43.812|20173=20230111-06:54:43.812551|58=Your logon is disabled. Contact your FCM.|10=137|
20230111-06:54:43.000000000 : 8=FIX.4.2|9=66|35=5|34=2|49=SacombankFDC|52=20230111-06:54:43.000|56=CQG_Gateway|10=052|
20230111-06:55:42.000000000 : 8=FIX.4.2|9=117|35=A|34=1|49=SacombankFDC|52=20230111-06:55:42.000|56=CQG_Gateway|50=TestFIXSessionPersist|96=pass|98=0|108=60|141=Y|10=017|
20230111-06:55:43.000000000 : 8=FIX.4.2|9=167|35=5|49=CQG_Gateway|56=SacombankFDC|34=1|57=TestFIXSessionPersist|52=20230111-06:55:43.287|20173=20230111-06:55:43.287066|58=Your logon is disabled. Contact your FCM.|10=152|
20230111-06:55:43.000000000 : 8=FIX.4.2|9=66|35=5|34=2|49=SacombankFDC|52=20230111-06:55:43.000|56=CQG_Gateway|10=053|
20230111-06:56:42.000000000 : 8=FIX.4.2|9=117|35=A|34=1|49=SacombankFDC|52=20230111-06:56:42.000|56=CQG_Gateway|50=TestFIXSessionPersist|96=pass|98=0|108=60|141=Y|10=018|
20230111-06:56:42.000000000 : 8=FIX.4.2|9=167|35=5|49=CQG_Gateway|56=SacombankFDC|34=1|57=TestFIXSessionPersist|52=20230111-06:56:42.834|20173=20230111-06:56:42.834539|58=Your logon is disabled. Contact your FCM.|10=153|
20230111-06:56:42.000000000 : 8=FIX.4.2|9=66|35=5|34=2|49=SacombankFDC|52=20230111-06:56:42.000|56=CQG_Gateway|10=053|
20230111-06:57:43.000000000 : 8=FIX.4.2|9=117|35=A|34=1|49=SacombankFDC|52=20230111-06:57:43.000|56=CQG_Gateway|50=TestFIXSessionPersist|96=pass|98=0|108=60|141=Y|10=020|
20230111-06:57:43.000000000 : 8=FIX.4.2|9=167|35=5|49=CQG_Gateway|56=SacombankFDC|34=1|57=TestFIXSessionPersist|52=20230111-06:57:43.373|20173=20230111-06:57:43.373217|58=Your logon is disabled. Contact your FCM.|10=146|
20230111-06:57:43.000000000 : 8=FIX.4.2|9=66|35=5|34=2|49=SacombankFDC|52=20230111-06:57:43.000|56=CQG_Gateway|10=055|
20230111-06:58:42.000000000 : 8=FIX.4.2|9=117|35=A|34=1|49=SacombankFDC|52=20230111-06:58:42.000|56=CQG_Gateway|50=TestFIXSessionPersist|96=pass|98=0|108=60|141=Y|10=020|
20230111-06:58:42.000000000 : 8=FIX.4.2|9=167|35=5|49=CQG_Gateway|56=SacombankFDC|34=1|57=TestFIXSessionPersist|52=20230111-06:58:42.959|20173=20230111-06:58:42.959354|58=Your logon is disabled. Contact your FCM.|10=168|
20230111-06:58:42.000000000 : 8=FIX.4.2|9=66|35=5|34=2|49=SacombankFDC|52=20230111-06:58:42.000|56=CQG_Gateway|10=055|
20230111-06:59:43.000000000 : 8=FIX.4.2|9=117|35=A|34=1|49=SacombankFDC|52=20230111-06:59:43.000|56=CQG_Gateway|50=TestFIXSessionPersist|96=pass|98=0|108=60|141=Y|10=022|
20230111-06:59:43.000000000 : 8=FIX.4.2|9=167|35=5|49=CQG_Gateway|56=SacombankFDC|34=1|57=TestFIXSessionPersist|52=20230111-06:59:43.452|20173=20230111-06:59:43.452615|58=Your logon is disabled. Contact your FCM.|10=148|
20230111-06:59:43.000000000 : 8=FIX.4.2|9=66|35=5|34=2|49=SacombankFDC|52=20230111-06:59:43.000|56=CQG_Gateway|10=057|
20230111-07:00:42.000000000 : 8=FIX.4.2|9=117|35=A|34=1|49=SacombankFDC|52=20230111-07:00:42.000|56=CQG_Gateway|50=TestFIXSessionPersist|96=pass|98=0|108=60|141=Y|10=008|
20230111-07:00:43.000000000 : 8=FIX.4.2|9=167|35=5|49=CQG_Gateway|56=SacombankFDC|34=1|57=TestFIXSessionPersist|52=20230111-07:00:43.242|20173=20230111-07:00:43.242726|58=Your logon is disabled. Contact your FCM.|10=119|
20230111-07:00:43.000000000 : 8=FIX.4.2|9=66|35=5|34=2|49=SacombankFDC|52=20230111-07:00:43.000|56=CQG_Gateway|10=044|
20230111-07:01:42.000000000 : 8=FIX.4.2|9=117|35=A|34=1|49=SacombankFDC|52=20230111-07:01:42.000|56=CQG_Gateway|50=TestFIXSessionPersist|96=pass|98=0|108=60|141=Y|10=009|
20230111-07:01:42.000000000 : 8=FIX.4.2|9=167|35=5|49=CQG_Gateway|56=SacombankFDC|34=1|57=TestFIXSessionPersist|52=20230111-07:01:42.784|20173=20230111-07:01:42.784927|58=Your logon is disabled. Contact your FCM.|10=144|
20230111-07:01:42.000000000 : 8=FIX.4.2|9=66|35=5|34=2|49=SacombankFDC|52=20230111-07:01:42.000|56=CQG_Gateway|10=044|
20230111-07:02:43.000000000 : 8=FIX.4.2|9=117|35=A|34=1|49=SacombankFDC|52=20230111-07:02:43.000|56=CQG_Gateway|50=TestFIXSessionPersist|96=pass|98=0|108=60|141=Y|10=011|
20230111-07:02:43.000000000 : 8=FIX.4.2|9=167|35=5|49=CQG_Gateway|56=SacombankFDC|34=1|57=TestFIXSessionPersist|52=20230111-07:02:43.401|20173=20230111-07:02:43.401142|58=Your logon is disabled. Contact your FCM.|10=109|
20230111-07:02:43.000000000 : 8=FIX.4.2|9=66|35=5|34=2|49=SacombankFDC|52=20230111-07:02:43.000|56=CQG_Gateway|10=046|
20230111-07:03:42.000000000 : 8=FIX.4.2|9=117|35=A|34=1|49=SacombankFDC|52=20230111-07:03:42.000|56=CQG_Gateway|50=TestFIXSessionPersist|96=pass|98=0|108=60|141=Y|10=011|
20230111-07:03:43.000000000 : 8=FIX.4.2|9=167|35=5|49=CQG_Gateway|56=SacombankFDC|34=1|57=TestFIXSessionPersist|52=20230111-07:03:42.943|20173=20230111-07:03:42.943808|58=Your logon is disabled. Contact your FCM.|10=140|
20230111-07:03:43.000000000 : 8=FIX.4.2|9=66|35=5|34=2|49=SacombankFDC|52=20230111-07:03:43.000|56=CQG_Gateway|10=047|
20230111-07:04:43.000000000 : 8=FIX.4.2|9=117|35=A|34=1|49=SacombankFDC|52=20230111-07:04:43.000|56=CQG_Gateway|50=TestFIXSessionPersist|96=pass|98=0|108=60|141=Y|10=013|
20230111-07:04:43.000000000 : 8=FIX.4.2|9=167|35=5|49=CQG_Gateway|56=SacombankFDC|34=1|57=TestFIXSessionPersist|52=20230111-07:04:43.514|20173=20230111-07:04:43.514977|58=Your logon is disabled. Contact your FCM.|10=139|
20230111-07:04:43.000000000 : 8=FIX.4.2|9=66|35=5|34=2|49=SacombankFDC|52=20230111-07:04:43.000|56=CQG_Gateway|10=048|
20230111-07:05:42.000000000 : 8=FIX.4.2|9=117|35=A|34=1|49=SacombankFDC|52=20230111-07:05:42.000|56=CQG_Gateway|50=TestFIXSessionPersist|96=pass|98=0|108=60|141=Y|10=013|
20230111-07:05:42.000000000 : 8=FIX.4.2|9=167|35=5|49=CQG_Gateway|56=SacombankFDC|34=1|57=TestFIXSessionPersist|52=20230111-07:05:42.996|20173=20230111-07:05:42.996953|58=Your logon is disabled. Contact your FCM.|10=161|
20230111-07:05:42.000000000 : 8=FIX.4.2|9=66|35=5|34=2|49=SacombankFDC|52=20230111-07:05:42.000|56=CQG_Gateway|10=048|
20230111-07:06:43.000000000 : 8=FIX.4.2|9=117|35=A|34=1|49=SacombankFDC|52=20230111-07:06:43.000|56=CQG_Gateway|50=TestFIXSessionPersist|96=pass|98=0|108=60|141=Y|10=015|
20230111-07:06:43.000000000 : 8=FIX.4.2|9=167|35=5|49=CQG_Gateway|56=SacombankFDC|34=1|57=TestFIXSessionPersist|52=20230111-07:06:43.630|20173=20230111-07:06:43.630125|58=Your logon is disabled. Contact your FCM.|10=126|
20230111-07:06:43.000000000 : 8=FIX.4.2|9=66|35=5|34=2|49=SacombankFDC|52=20230111-07:06:43.000|56=CQG_Gateway|10=050|
20230111-07:07:42.000000000 : 8=FIX.4.2|9=117|35=A|34=1|49=SacombankFDC|52=20230111-07:07:42.000|56=CQG_Gateway|50=TestFIXSessionPersist|96=pass|98=0|108=60|141=Y|10=015|
20230111-07:07:43.000000000 : 8=FIX.4.2|9=167|35=5|49=CQG_Gateway|56=SacombankFDC|34=1|57=TestFIXSessionPersist|52=20230111-07:07:43.237|20173=20230111-07:07:43.237479|58=Your logon is disabled. Contact your FCM.|10=146|
20230111-07:07:43.000000000 : 8=FIX.4.2|9=66|35=5|34=2|49=SacombankFDC|52=20230111-07:07:43.000|56=CQG_Gateway|10=051|
20230111-07:08:42.000000000 : 8=FIX.4.2|9=117|35=A|34=1|49=SacombankFDC|52=20230111-07:08:42.000|56=CQG_Gateway|50=TestFIXSessionPersist|96=pass|98=0|108=60|141=Y|10=016|
20230111-07:08:42.000000000 : 8=FIX.4.2|9=167|35=5|49=CQG_Gateway|56=SacombankFDC|34=1|57=TestFIXSessionPersist|52=20230111-07:08:42.794|20173=20230111-07:08:42.794646|58=Your logon is disabled. Contact your FCM.|10=158|
20230111-07:08:42.000000000 : 8=FIX.4.2|9=66|35=5|34=2|49=SacombankFDC|52=20230111-07:08:42.000|56=CQG_Gateway|10=051|
20230111-07:09:43.000000000 : 8=FIX.4.2|9=117|35=A|34=1|49=SacombankFDC|52=20230111-07:09:43.000|56=CQG_Gateway|50=TestFIXSessionPersist|96=pass|98=0|108=60|141=Y|10=018|
20230111-07:09:43.000000000 : 8=FIX.4.2|9=167|35=5|49=CQG_Gateway|56=SacombankFDC|34=1|57=TestFIXSessionPersist|52=20230111-07:09:43.349|20173=20230111-07:09:43.349044|58=Your logon is disabled. Contact your FCM.|10=146|
20230111-07:09:43.000000000 : 8=FIX.4.2|9=66|35=5|34=2|49=SacombankFDC|52=20230111-07:09:43.000|56=CQG_Gateway|10=053|
20230111-07:18:34.000000000 : 8=FIX.4.2|9=117|35=A|34=1|49=SacombankFDC|52=20230111-07:18:34.000|56=CQG_Gateway|50=TestFIXSessionPersist|96=pass|98=0|108=60|141=Y|10=018|
20230111-07:18:34.000000000 : 8=FIX.4.2|9=167|35=5|49=CQG_Gateway|56=SacombankFDC|34=1|57=TestFIXSessionPersist|52=20230111-07:18:34.745|20173=20230111-07:18:34.745257|58=Your logon is disabled. Contact your FCM.|10=152|
20230111-07:18:34.000000000 : 8=FIX.4.2|9=66|35=5|34=2|49=SacombankFDC|52=20230111-07:18:34.000|56=CQG_Gateway|10=053|
20230111-07:19:30.000000000 : 8=FIX.4.2|9=117|35=A|34=1|49=SacombankFDC|52=20230111-07:19:30.000|56=CQG_Gateway|50=TestFIXSessionPersist|96=pass|98=0|108=60|141=Y|10=015|
20230111-07:19:30.000000000 : 8=FIX.4.2|9=167|35=5|49=CQG_Gateway|56=SacombankFDC|34=1|57=TestFIXSessionPersist|52=20230111-07:19:30.824|20173=20230111-07:19:30.824959|58=Your logon is disabled. Contact your FCM.|10=151|
20230111-07:19:30.000000000 : 8=FIX.4.2|9=66|35=5|34=2|49=SacombankFDC|52=20230111-07:19:30.000|56=CQG_Gateway|10=050|
20230111-07:34:34.000000000 : 8=FIX.4.2|9=117|35=A|34=1|49=SacombankFDC|52=20230111-07:34:34.000|56=CQG_Gateway|50=TestFIXSessionPersist|96=pass|98=0|108=60|141=Y|10=016|
20230111-07:34:34.000000000 : 8=FIX.4.2|9=167|35=5|49=CQG_Gateway|56=SacombankFDC|34=1|57=TestFIXSessionPersist|52=20230111-07:34:34.909|20173=20230111-07:34:34.909925|58=Your logon is disabled. Contact your FCM.|10=154|
20230111-07:34:34.000000000 : 8=FIX.4.2|9=66|35=5|34=2|49=SacombankFDC|52=20230111-07:34:34.000|56=CQG_Gateway|10=051|
20230111-07:35:35.000000000 : 8=FIX.4.2|9=117|35=A|34=1|49=SacombankFDC|52=20230111-07:35:35.000|56=CQG_Gateway|50=TestFIXSessionPersist|96=pass|98=0|108=60|141=Y|10=018|
20230111-07:35:35.000000000 : 8=FIX.4.2|9=167|35=5|49=CQG_Gateway|56=SacombankFDC|34=1|57=TestFIXSessionPersist|52=20230111-07:35:35.427|20173=20230111-07:35:35.427521|58=Your logon is disabled. Contact your FCM.|10=140|
20230111-07:35:35.000000000 : 8=FIX.4.2|9=66|35=5|34=2|49=SacombankFDC|52=20230111-07:35:35.000|56=CQG_Gateway|10=053|
20230111-07:36:34.000000000 : 8=FIX.4.2|9=117|35=A|34=1|49=SacombankFDC|52=20230111-07:36:34.000|56=CQG_Gateway|50=TestFIXSessionPersist|96=pass|98=0|108=60|141=Y|10=018|
20230111-07:36:34.000000000 : 8=FIX.4.2|9=167|35=5|49=CQG_Gateway|56=SacombankFDC|34=1|57=TestFIXSessionPersist|52=20230111-07:36:34.835|20173=20230111-07:36:34.835678|58=Your logon is disabled. Contact your FCM.|10=159|
20230111-07:36:34.000000000 : 8=FIX.4.2|9=66|35=5|34=2|49=SacombankFDC|52=20230111-07:36:34.000|56=CQG_Gateway|10=053|
20230111-07:37:35.000000000 : 8=FIX.4.2|9=117|35=A|34=1|49=SacombankFDC|52=20230111-07:37:35.000|56=CQG_Gateway|50=TestFIXSessionPersist|96=pass|98=0|108=60|141=Y|10=020|
20230111-07:37:36.000000000 : 8=FIX.4.2|9=167|35=5|49=CQG_Gateway|56=SacombankFDC|34=1|57=TestFIXSessionPersist|52=20230111-07:37:35.444|20173=20230111-07:37:35.444191|58=Your logon is disabled. Contact your FCM.|10=145|
20230111-07:37:36.000000000 : 8=FIX.4.2|9=66|35=5|34=2|49=SacombankFDC|52=20230111-07:37:36.000|56=CQG_Gateway|10=056|
20230111-07:38:34.000000000 : 8=FIX.4.2|9=117|35=A|34=1|49=SacombankFDC|52=20230111-07:38:34.000|56=CQG_Gateway|50=TestFIXSessionPersist|96=pass|98=0|108=60|141=Y|10=020|
20230111-07:38:35.000000000 : 8=FIX.4.2|9=167|35=5|49=CQG_Gateway|56=SacombankFDC|34=1|57=TestFIXSessionPersist|52=20230111-07:38:35.026|20173=20230111-07:38:35.026382|58=Your logon is disabled. Contact your FCM.|10=141|
20230111-07:38:35.000000000 : 8=FIX.4.2|9=66|35=5|34=2|49=SacombankFDC|52=20230111-07:38:35.000|56=CQG_Gateway|10=056|
20230111-07:39:34.000000000 : 8=FIX.4.2|9=117|35=A|34=1|49=SacombankFDC|52=20230111-07:39:34.000|56=CQG_Gateway|50=TestFIXSessionPersist|96=pass|98=0|108=60|141=Y|10=021|
20230111-07:39:34.000000000 : 8=FIX.4.2|9=167|35=5|49=CQG_Gateway|56=SacombankFDC|34=1|57=TestFIXSessionPersist|52=20230111-07:39:34.637|20173=20230111-07:39:34.637761|58=Your logon is disabled. Contact your FCM.|10=158|
20230111-07:39:34.000000000 : 8=FIX.4.2|9=66|35=5|34=2|49=SacombankFDC|52=20230111-07:39:34.000|56=CQG_Gateway|10=056|
20230111-07:40:34.000000000 : 8=FIX.4.2|9=117|35=A|34=1|49=SacombankFDC|52=20230111-07:40:34.000|56=CQG_Gateway|50=TestFIXSessionPersist|96=pass|98=0|108=60|141=Y|10=013|
20230111-07:40:35.000000000 : 8=FIX.4.2|9=167|35=5|49=CQG_Gateway|56=SacombankFDC|34=1|57=TestFIXSessionPersist|52=20230111-07:40:35.245|20173=20230111-07:40:35.245276|58=Your logon is disabled. Contact your FCM.|10=135|
20230111-07:40:35.000000000 : 8=FIX.4.2|9=66|35=5|34=2|49=SacombankFDC|52=20230111-07:40:35.000|56=CQG_Gateway|10=049|
20230111-07:41:34.000000000 : 8=FIX.4.2|9=117|35=A|34=1|49=SacombankFDC|52=20230111-07:41:34.000|56=CQG_Gateway|50=TestFIXSessionPersist|96=pass|98=0|108=60|141=Y|10=014|
20230111-07:41:34.000000000 : 8=FIX.4.2|9=167|35=5|49=CQG_Gateway|56=SacombankFDC|34=1|57=TestFIXSessionPersist|52=20230111-07:41:34.903|20173=20230111-07:41:34.903156|58=Your logon is disabled. Contact your FCM.|10=134|
20230111-07:41:34.000000000 : 8=FIX.4.2|9=66|35=5|34=2|49=SacombankFDC|52=20230111-07:41:34.000|56=CQG_Gateway|10=049|
20230111-07:42:35.000000000 : 8=FIX.4.2|9=117|35=A|34=1|49=SacombankFDC|52=20230111-07:42:35.000|56=CQG_Gateway|50=TestFIXSessionPersist|96=pass|98=0|108=60|141=Y|10=016|
20230111-07:42:35.000000000 : 8=FIX.4.2|9=167|35=5|49=CQG_Gateway|56=SacombankFDC|34=1|57=TestFIXSessionPersist|52=20230111-07:42:35.572|20173=20230111-07:42:35.572519|58=Your logon is disabled. Contact your FCM.|10=145|
20230111-07:42:35.000000000 : 8=FIX.4.2|9=66|35=5|34=2|49=SacombankFDC|52=20230111-07:42:35.000|56=CQG_Gateway|10=051|
20230111-07:43:34.000000000 : 8=FIX.4.2|9=117|35=A|34=1|49=SacombankFDC|52=20230111-07:43:34.000|56=CQG_Gateway|50=TestFIXSessionPersist|96=pass|98=0|108=60|141=Y|10=016|
20230111-07:43:35.000000000 : 8=FIX.4.2|9=167|35=5|49=CQG_Gateway|56=SacombankFDC|34=1|57=TestFIXSessionPersist|52=20230111-07:43:35.187|20173=20230111-07:43:35.187113|58=Your logon is disabled. Contact your FCM.|10=141|
20230111-07:43:35.000000000 : 8=FIX.4.2|9=66|35=5|34=2|49=SacombankFDC|52=20230111-07:43:35.000|56=CQG_Gateway|10=052|
20230111-07:44:34.000000000 : 8=FIX.4.2|9=117|35=A|34=1|49=SacombankFDC|52=20230111-07:44:34.000|56=CQG_Gateway|50=TestFIXSessionPersist|96=pass|98=0|108=60|141=Y|10=017|
20230111-07:44:34.000000000 : 8=FIX.4.2|9=167|35=5|49=CQG_Gateway|56=SacombankFDC|34=1|57=TestFIXSessionPersist|52=20230111-07:44:34.788|20173=20230111-07:44:34.788278|58=Your logon is disabled. Contact your FCM.|10=167|
20230111-07:44:34.000000000 : 8=FIX.4.2|9=66|35=5|34=2|49=SacombankFDC|52=20230111-07:44:34.000|56=CQG_Gateway|10=052|
20230111-07:45:35.000000000 : 8=FIX.4.2|9=117|35=A|34=1|49=SacombankFDC|52=20230111-07:45:35.000|56=CQG_Gateway|50=TestFIXSessionPersist|96=pass|98=0|108=60|141=Y|10=019|
20230111-07:45:35.000000000 : 8=FIX.4.2|9=167|35=5|49=CQG_Gateway|56=SacombankFDC|34=1|57=TestFIXSessionPersist|52=20230111-07:45:35.381|20173=20230111-07:45:35.381454|58=Your logon is disabled. Contact your FCM.|10=145|
20230111-07:45:35.000000000 : 8=FIX.4.2|9=66|35=5|34=2|49=SacombankFDC|52=20230111-07:45:35.000|56=CQG_Gateway|10=054|
20230111-07:46:34.000000000 : 8=FIX.4.2|9=117|35=A|34=1|49=SacombankFDC|52=20230111-07:46:34.000|56=CQG_Gateway|50=TestFIXSessionPersist|96=pass|98=0|108=60|141=Y|10=019|
20230111-07:46:35.000000000 : 8=FIX.4.2|9=167|35=5|49=CQG_Gateway|56=SacombankFDC|34=1|57=TestFIXSessionPersist|52=20230111-07:46:35.310|20173=20230111-07:46:35.310698|58=Your logon is disabled. Contact your FCM.|10=141|
20230111-07:46:35.000000000 : 8=FIX.4.2|9=66|35=5|34=2|49=SacombankFDC|52=20230111-07:46:35.000|56=CQG_Gateway|10=055|
20230111-07:47:34.000000000 : 8=FIX.4.2|9=117|35=A|34=1|49=SacombankFDC|52=20230111-07:47:34.000|56=CQG_Gateway|50=TestFIXSessionPersist|96=pass|98=0|108=60|141=Y|10=020|
20230111-07:47:34.000000000 : 8=FIX.4.2|9=167|35=5|49=CQG_Gateway|56=SacombankFDC|34=1|57=TestFIXSessionPersist|52=20230111-07:47:34.917|20173=20230111-07:47:34.917777|58=Your logon is disabled. Contact your FCM.|10=165|
20230111-07:47:34.000000000 : 8=FIX.4.2|9=66|35=5|34=2|49=SacombankFDC|52=20230111-07:47:34.000|56=CQG_Gateway|10=055|
20230111-07:48:35.000000000 : 8=FIX.4.2|9=117|35=A|34=1|49=SacombankFDC|52=20230111-07:48:35.000|56=CQG_Gateway|50=TestFIXSessionPersist|96=pass|98=0|108=60|141=Y|10=022|
20230111-07:48:35.000000000 : 8=FIX.4.2|9=167|35=5|49=CQG_Gateway|56=SacombankFDC|34=1|57=TestFIXSessionPersist|52=20230111-07:48:35.579|20173=20230111-07:48:35.579356|58=Your logon is disabled. Contact your FCM.|10=170|
20230111-07:48:35.000000000 : 8=FIX.4.2|9=66|35=5|34=2|49=SacombankFDC|52=20230111-07:48:35.000|56=CQG_Gateway|10=057|
20230111-07:49:34.000000000 : 8=FIX.4.2|9=117|35=A|34=1|49=SacombankFDC|52=20230111-07:49:34.000|56=CQG_Gateway|50=TestFIXSessionPersist|96=pass|98=0|108=60|141=Y|10=022|
20230111-07:49:35.000000000 : 8=FIX.4.2|9=167|35=5|49=CQG_Gateway|56=SacombankFDC|34=1|57=TestFIXSessionPersist|52=20230111-07:49:35.131|20173=20230111-07:49:35.131169|58=Your logon is disabled. Contact your FCM.|10=142|
20230111-07:49:35.000000000 : 8=FIX.4.2|9=66|35=5|34=2|49=SacombankFDC|52=20230111-07:49:35.000|56=CQG_Gateway|10=058|
20230111-07:50:34.000000000 : 8=FIX.4.2|9=117|35=A|34=1|49=SacombankFDC|52=20230111-07:50:34.000|56=CQG_Gateway|50=TestFIXSessionPersist|96=pass|98=0|108=60|141=Y|10=014|
20230111-07:50:34.000000000 : 8=FIX.4.2|9=167|35=5|49=CQG_Gateway|56=SacombankFDC|34=1|57=TestFIXSessionPersist|52=20230111-07:50:34.707|20173=20230111-07:50:34.707611|58=Your logon is disabled. Contact your FCM.|10=134|
20230111-07:50:34.000000000 : 8=FIX.4.2|9=66|35=5|34=2|49=SacombankFDC|52=20230111-07:50:34.000|56=CQG_Gateway|10=049|
20230111-07:51:34.000000000 : 8=FIX.4.2|9=117|35=A|34=1|49=SacombankFDC|52=20230111-07:51:34.000|56=CQG_Gateway|50=TestFIXSessionPersist|96=pass|98=0|108=60|141=Y|10=015|
20230111-07:51:35.000000000 : 8=FIX.4.2|9=167|35=5|49=CQG_Gateway|56=SacombankFDC|34=1|57=TestFIXSessionPersist|52=20230111-07:51:35.292|20173=20230111-07:51:35.292097|58=Your logon is disabled. Contact your FCM.|10=144|
20230111-07:51:35.000000000 : 8=FIX.4.2|9=66|35=5|34=2|49=SacombankFDC|52=20230111-07:51:35.000|56=CQG_Gateway|10=051|
20230111-07:52:34.000000000 : 8=FIX.4.2|9=117|35=A|34=1|49=SacombankFDC|52=20230111-07:52:34.000|56=CQG_Gateway|50=TestFIXSessionPersist|96=pass|98=0|108=60|141=Y|10=016|
20230111-07:52:35.000000000 : 8=FIX.4.2|9=167|35=5|49=CQG_Gateway|56=SacombankFDC|34=1|57=TestFIXSessionPersist|52=20230111-07:52:35.191|20173=20230111-07:52:35.191821|58=Your logon is disabled. Contact your FCM.|10=137|
20230111-07:52:35.000000000 : 8=FIX.4.2|9=66|35=5|34=2|49=SacombankFDC|52=20230111-07:52:35.000|56=CQG_Gateway|10=052|
20230111-07:53:34.000000000 : 8=FIX.4.2|9=117|35=A|34=1|49=SacombankFDC|52=20230111-07:53:34.000|56=CQG_Gateway|50=TestFIXSessionPersist|96=pass|98=0|108=60|141=Y|10=017|
20230111-07:53:34.000000000 : 8=FIX.4.2|9=167|35=5|49=CQG_Gateway|56=SacombankFDC|34=1|57=TestFIXSessionPersist|52=20230111-07:53:34.676|20173=20230111-07:53:34.676838|58=Your logon is disabled. Contact your FCM.|10=161|
20230111-07:53:34.000000000 : 8=FIX.4.2|9=66|35=5|34=2|49=SacombankFDC|52=20230111-07:53:34.000|56=CQG_Gateway|10=052|
20230111-07:54:34.000000000 : 8=FIX.4.2|9=117|35=A|34=1|49=SacombankFDC|52=20230111-07:54:34.000|56=CQG_Gateway|50=TestFIXSessionPersist|96=pass|98=0|108=60|141=Y|10=018|
20230111-07:54:35.000000000 : 8=FIX.4.2|9=167|35=5|49=CQG_Gateway|56=SacombankFDC|34=1|57=TestFIXSessionPersist|52=20230111-07:54:35.273|20173=20230111-07:54:35.273512|58=Your logon is disabled. Contact your FCM.|10=140|
20230111-07:54:35.000000000 : 8=FIX.4.2|9=66|35=5|34=2|49=SacombankFDC|52=20230111-07:54:35.000|56=CQG_Gateway|10=054|
20230111-07:55:34.000000000 : 8=FIX.4.2|9=117|35=A|34=1|49=SacombankFDC|52=20230111-07:55:34.000|56=CQG_Gateway|50=TestFIXSessionPersist|96=pass|98=0|108=60|141=Y|10=019|
20230111-07:55:34.000000000 : 8=FIX.4.2|9=167|35=5|49=CQG_Gateway|56=SacombankFDC|34=1|57=TestFIXSessionPersist|52=20230111-07:55:34.888|20173=20230111-07:55:34.888782|58=Your logon is disabled. Contact your FCM.|10=173|
20230111-07:55:34.000000000 : 8=FIX.4.2|9=66|35=5|34=2|49=SacombankFDC|52=20230111-07:55:34.000|56=CQG_Gateway|10=054|
20230111-07:56:35.000000000 : 8=FIX.4.2|9=117|35=A|34=1|49=SacombankFDC|52=20230111-07:56:35.000|56=CQG_Gateway|50=TestFIXSessionPersist|96=pass|98=0|108=60|141=Y|10=021|
20230111-07:56:35.000000000 : 8=FIX.4.2|9=167|35=5|49=CQG_Gateway|56=SacombankFDC|34=1|57=TestFIXSessionPersist|52=20230111-07:56:35.529|20173=20230111-07:56:35.529472|58=Your logon is disabled. Contact your FCM.|10=157|
20230111-07:56:35.000000000 : 8=FIX.4.2|9=66|35=5|34=2|49=SacombankFDC|52=20230111-07:56:35.000|56=CQG_Gateway|10=056|
20230111-07:57:34.000000000 : 8=FIX.4.2|9=117|35=A|34=1|49=SacombankFDC|52=20230111-07:57:34.000|56=CQG_Gateway|50=TestFIXSessionPersist|96=pass|98=0|108=60|141=Y|10=021|
20230111-07:57:35.000000000 : 8=FIX.4.2|9=167|35=5|49=CQG_Gateway|56=SacombankFDC|34=1|57=TestFIXSessionPersist|52=20230111-07:57:35.305|20173=20230111-07:57:35.305300|58=Your logon is disabled. Contact your FCM.|10=133|
20230111-07:57:35.000000000 : 8=FIX.4.2|9=66|35=5|34=2|49=SacombankFDC|52=20230111-07:57:35.000|56=CQG_Gateway|10=057|
20230111-07:58:34.000000000 : 8=FIX.4.2|9=117|35=A|34=1|49=SacombankFDC|52=20230111-07:58:34.000|56=CQG_Gateway|50=TestFIXSessionPersist|96=pass|98=0|108=60|141=Y|10=022|
20230111-07:58:34.000000000 : 8=FIX.4.2|9=167|35=5|49=CQG_Gateway|56=SacombankFDC|34=1|57=TestFIXSessionPersist|52=20230111-07:58:34.863|20173=20230111-07:58:34.863605|58=Your logon is disabled. Contact your FCM.|10=159|
20230111-07:58:34.000000000 : 8=FIX.4.2|9=66|35=5|34=2|49=SacombankFDC|52=20230111-07:58:34.000|56=CQG_Gateway|10=057|
20230111-07:59:35.000000000 : 8=FIX.4.2|9=117|35=A|34=1|49=SacombankFDC|52=20230111-07:59:35.000|56=CQG_Gateway|50=TestFIXSessionPersist|96=pass|98=0|108=60|141=Y|10=024|
20230111-07:59:35.000000000 : 8=FIX.4.2|9=167|35=5|49=CQG_Gateway|56=SacombankFDC|34=1|57=TestFIXSessionPersist|52=20230111-07:59:35.430|20173=20230111-07:59:35.430295|58=Your logon is disabled. Contact your FCM.|10=148|
20230111-07:59:35.000000000 : 8=FIX.4.2|9=66|35=5|34=2|49=SacombankFDC|52=20230111-07:59:35.000|56=CQG_Gateway|10=059|
20230111-08:00:34.000000000 : 8=FIX.4.2|9=117|35=A|34=1|49=SacombankFDC|52=20230111-08:00:34.000|56=CQG_Gateway|50=TestFIXSessionPersist|96=pass|98=0|108=60|141=Y|10=010|
20230111-08:00:34.000000000 : 8=FIX.4.2|9=167|35=5|49=CQG_Gateway|56=SacombankFDC|34=1|57=TestFIXSessionPersist|52=20230111-08:00:35.018|20173=20230111-08:00:35.018778|58=Your logon is disabled. Contact your FCM.|10=132|
20230111-08:00:34.000000000 : 8=FIX.4.2|9=66|35=5|34=2|49=SacombankFDC|52=20230111-08:00:34.000|56=CQG_Gateway|10=045|
20230111-08:01:34.000000000 : 8=FIX.4.2|9=117|35=A|34=1|49=SacombankFDC|52=20230111-08:01:34.000|56=CQG_Gateway|50=TestFIXSessionPersist|96=pass|98=0|108=60|141=Y|10=011|
20230111-08:01:34.000000000 : 8=FIX.4.2|9=167|35=5|49=CQG_Gateway|56=SacombankFDC|34=1|57=TestFIXSessionPersist|52=20230111-08:01:34.630|20173=20230111-08:01:34.630761|58=Your logon is disabled. Contact your FCM.|10=124|
20230111-08:01:34.000000000 : 8=FIX.4.2|9=66|35=5|34=2|49=SacombankFDC|52=20230111-08:01:34.000|56=CQG_Gateway|10=046|
20230111-08:02:34.000000000 : 8=FIX.4.2|9=117|35=A|34=1|49=SacombankFDC|52=20230111-08:02:34.000|56=CQG_Gateway|50=TestFIXSessionPersist|96=pass|98=0|108=60|141=Y|10=012|
20230111-08:02:35.000000000 : 8=FIX.4.2|9=167|35=5|49=CQG_Gateway|56=SacombankFDC|34=1|57=TestFIXSessionPersist|52=20230111-08:02:35.272|20173=20230111-08:02:35.272846|58=Your logon is disabled. Contact your FCM.|10=136|
20230111-08:02:35.000000000 : 8=FIX.4.2|9=66|35=5|34=2|49=SacombankFDC|52=20230111-08:02:35.000|56=CQG_Gateway|10=048|
20230111-08:03:34.000000000 : 8=FIX.4.2|9=117|35=A|34=1|49=SacombankFDC|52=20230111-08:03:34.000|56=CQG_Gateway|50=TestFIXSessionPersist|96=pass|98=0|108=60|141=Y|10=013|
20230111-08:03:34.000000000 : 8=FIX.4.2|9=167|35=5|49=CQG_Gateway|56=SacombankFDC|34=1|57=TestFIXSessionPersist|52=20230111-08:03:35.064|20173=20230111-08:03:35.064635|58=Your logon is disabled. Contact your FCM.|10=132|
20230111-08:03:34.000000000 : 8=FIX.4.2|9=66|35=5|34=2|49=SacombankFDC|52=20230111-08:03:34.000|56=CQG_Gateway|10=048|
20230111-08:04:35.000000000 : 8=FIX.4.2|9=117|35=A|34=1|49=SacombankFDC|52=20230111-08:04:35.000|56=CQG_Gateway|50=TestFIXSessionPersist|96=pass|98=0|108=60|141=Y|10=015|
20230111-08:04:35.000000000 : 8=FIX.4.2|9=167|35=5|49=CQG_Gateway|56=SacombankFDC|34=1|57=TestFIXSessionPersist|52=20230111-08:04:35.616|20173=20230111-08:04:35.616624|58=Your logon is disabled. Contact your FCM.|10=138|
20230111-08:04:35.000000000 : 8=FIX.4.2|9=66|35=5|34=2|49=SacombankFDC|52=20230111-08:04:35.000|56=CQG_Gateway|10=050|
20230111-08:05:35.000000000 : 8=FIX.4.2|9=117|35=A|34=1|49=SacombankFDC|52=20230111-08:05:35.000|56=CQG_Gateway|50=TestFIXSessionPersist|96=pass|98=0|108=60|141=Y|10=016|
