20230530-06:51:33.000000000 : 8=FIX.4.2|9=117|35=A|34=1|49=SacombankFDC|52=20230530-06:51:33.000|56=CQG_Gateway|50=TestFIXSessionPersist|96=pass|98=0|108=60|141=Y|10=018|
20230530-06:51:34.000000000 : 8=FIX.4.2|9=140|35=A|49=CQG_Gateway|56=SacombankFDC|34=1|57=TestFIXSessionPersist|52=20230530-06:51:33.643|20173=20230530-06:51:33.643249|108=60|141=Y|98=0|10=197|
